:2000000039C0000053C0000051C000004FC000004DC000004BC0000049C0000047C000008C
:2000200045C0000043C0000041C0000007C600003DC000003BC0000039C0000037C0000002
:20004000D3C1000033C0000031C000002FC000002DC000002BC0000029C0000027C0000091
:2000600025C0000023C0000021C000001FC000001DC0000011241FBECFEFD2E0DEBFCDBF70
:2000800011E0A0E0B1E0E2EBF9E102C005900D92A83FB107D9F712E0A8EFB1E001C01D92C8
:2000A000A033B107E1F796D30C94D70CA9CFCF93DF93EC01DB01809117028230F1F183306B
:2000C00038F4882309F49DC0813009F098C007C0833009F453C0843009F091C07CC0809118
:2000E0000302909104022091010230910202280F391FE0910502F091060265E070E00E9494
:200100006809BE01680F791FE617F70708F4BF016217730748F08091FA019091FB01B901DB
:200120002817390708F4BC017497EC17FD0708F06AC01D921C9282E04BC08D919C91119796
:20014000E0910902F0910A028E179F0748F42091050230910602609107027091080220C0A9
:200160006091070270910802CB0188978C179D0708F049C01D921C9283E02AC08D919C9152
:200180001197E0910D02F0910E028E179F0790F4209107023091080260910B0270910C0245
:2001A000621B730B0E946809BF010E949309620F731F29C060910B0270910C026C177D0733
:2001C00010F51D921C921092FE011092FD0184E08093170218C0609101027091020280910A
:2001E0000F0290911002681B790B8091FA019091FB016817790738F41092170204C010923F
:20020000170260E070E07093020260930102CB01DF91CF9108952091FA013091FB01821BF9
:20022000930B6AE678E10E94680960E575E00E949309CB0108952F923F924F925F926F92BE
:200240007F928F929F92AF92BF92CF92DF92EF92FF920F931F93DF93CF9300D000D000D02D
:20026000CDB7DEB73C017C0100E010E080E090E0E61AF70A080B190B6114710459F41092FA
:20028000FE011092FD01F0920002E092FF0120E030E090C0209111023091120240E050E080
:2002A000C801B7010E947A0969837A838B839C83C090FD01D090FE016091130270911402B8
:2002C000C6010E9468091C01442455246091FF0170910002882777FD8095982F6E197F0944
:2002E000800B910B209115023091160240E050E00E947A094B015C01C6018E0D9F1D2EEFDD
:200300008037920714F480E79EEF9E838D838159914024F040E951E05E834D83F092000212
:20032000E092FF01C30177DFA0E0B0E0820D931DA41DB51D29813A814B815C81820F931FFE
:20034000A41FB51F880D991DAA1DBB1D8A3638E1930730E0A30730E0B3072CF04D815E815C
:200360004C155D057CF0B7FF05C0ED81FE81CE16DF0644F08B36F8E19F07F0E0AF07F0E053
:20038000BF0730F42D813E813093FE012093FD018B3638E1930730E0A30730E0B3071CF08F
:2003A0002AE638E107C0B7FF04C080E090E0A0E0B0E09C01C90126960FB6F894DEBF0FBE15
:2003C000CDBFCF91DF911F910F91FF90EF90DF90CF90BF90AF909F908F907F906F905F90BC
:2003E0004F903F902F9008951F920F920FB60F9211248F9381E08093F9018F910F900FBEEA
:200400000F901F90189581E08093F80108951092F80108958AE591E0AFC68AE591E085C61F
:200420000F931F93DF93CF9300D000D0CDB7DEB715B800000000FE0131969E012B5F3F4F91
:200440001EBC0DB407FEFDCF8EB58193E217F307B9F7998197FF03C000E010E00CC08A811C
:2004600086958695092F10E046E0000F111F4A95E1F7080F111D8B8187FF05C01092FB01C8
:200480001092FA0113C02C8122952F7090E034E0880F991F3A95E1F7820F911D96958795E9
:2004A000969587959093FB018093FA018A8180FF21C000D000D000D0EDB7FEB7319688E164
:2004C00092E0ADB7BEB712969C938E93119780E091E0938382838C8190E0877090709583B9
:2004E000848377D78DB79EB706960FB6F8949EBF0FBE8DBF81E085B9C8010F900F900F9066
:200500000F90CF91DF911F910F9108958DB79EB748970FB6F8949EBF0FBE8DBFEDB7FEB7E7
:20052000319688E192E0ADB7BEB712969C938E9311978AE091E09383828380910302909173
:2005400004029583848380910502909106029783868380910702909108029187808780919D
:20056000090290910A029387828780910B0290910C029587848780910D0290910E0297873D
:20058000868780910F0290911002918B808B8091110290911202938B828B80911302909107
:2005A0001402958B848B8091150290911602978B868B0FD78DB79EB748960FB6F8949EBF57
:2005C0000FBE8DBF089584B7877F84BF88E10FB6F89480936000109260000FBE83E084B945
:2005E000289A2998109285001092840082E8809380008CED8093810084E080936F002AE62B
:2006000038E1309387002093860081E090E090938B0080938A00309389002093880080E437
:2006200087B918B81AB880E58CBD81E08DBDF7D28AE591E068E172E0E2C4EF92FF920F93E1
:200640001F93DF93CF93CDB7DEB764970FB6F894DEBF0FBECDBF8E010F5F1F4F55E1E52E05
:20066000F12CEC0EFD1E88E192E071D62FEF8F3F9207C9F3F80181938F01EE15FF0599F7B1
:20068000998180E02A8130E0822B932B90930402809303029B8180E02C8130E0822B932BD5
:2006A00090930602809305029D8180E02E8130E0822B932B90930802809307029F8180E084
:2006C000288530E0822B932B90930A0280930902998580E02A8530E0822B932B90930C02CC
:2006E00080930B029B8580E02C8530E0822B932B90930E0280930D029D8580E02E8530E094
:20070000822B932B9093100280930F029F8580E0288930E0822B932B909312028093110208
:20072000998980E02A8930E0822B932B90931402809313029B8980E02C8930E0822B932BF4
:20074000909316028093150283E092E060E070E044E150E00E94090C64960FB6F894DEBFDB
:200760000FBECDBFCF91DF911F910F91FF90EF90089588E192E0EBD5813219F588E192E01E
:20078000E6D52FEF8F3F9207C9F3843421F481E08093FC010895843619F41092FC0108957F
:2007A000873509F44ACF833521F481E0809317020895883419F41092170208958F3409F48F
:2007C000A5CE089583E092E060E070E044E150E00C94F90B2F923F924F925F927F928F9215
:2007E0009F92AF92BF92CF92DF92EF92FF920F931F93DF93CF9300D0CDB7DEB71A8219820A
:20080000E2DEE0DF789481E08093170209DE7C018E010F5F1F4FB8014ADC5C0189819A8190
:2008200001969A838983CC24DD24E8E18E2EE2E09E2E7AE2272E71E0372E64E5462E61E08F
:20084000562E702E012F8091F801882329F091DF8AE591E01FD492D38091F801882309F41E
:200860005AC0DD2009F457C020918800309189008DB79EB70E970FB6F8949EBF0FBE8DBFC5
:20088000EDB7FEB73196ADB7BEB712969C928E92119733822282F582E4828091FA0190915E
:2008A000FB0197838683B186A0863387228780911702848715868DD58DB79EB70E960FB625
:2008C000F8949EBF0FBE8DBF8091FC018823E9F000D000D000D0EDB7FEB73196ADB7BEB71B
:2008E00012969C928E921197538242828091FD019091FE01958384836CD58DB79EB70696FD
:200900000FB6F8949EBF0FBE8DBF8AE090E068E172E070D5DD248091F901882309F493CF40
:2009200095E0C91611F0C3940DC0C701672D702FBEDB5C0189819A8101969A838983CC2478
:20094000DD24D3946DDD7C011092F901C501B70172DC909389008093880075CFFA019230B8
:2009600039F0933051F09130E9F485E791E017C087E891E02EE330E019C0882329F485ECE5
:2009800091E024E030E012C0813029F489EC91E028E130E00BC0823029F483EE91E022E1B4
:2009A00030E004C080E090E020E030E091838083C90108959C0140912E0250912F024617F8
:2009C000570718F4F90190E03CC06115710511F0AB01F8CF8091E8008E778093E80040E0CE
:2009E00050E0F0CF8EB3882309F440C0853009F43FC08091E80083FD3DC08091E80082FD80
:200A00002FC08091E80080FF1CC08091F200282F30E007C081918093F100415050402F5F9D
:200A20003F4F4115510519F02830310598F390E02830310509F491E08091E8008E778093DD
:200A4000E8004115510571F6992361F609C08EB3882361F0853061F08091E80083FD0AC039
:200A60008091E80082FFF3CF80E0089582E0089583E0089581E008958F708093E900809134
:200A8000EB0081608093EB001092ED006093EC004093ED008091EE00881F8827881F0895C5
:200AA0000F931F93CF93DF93062FEC0110E02AC09881992329F16B81E981FA812C81892FED
:200AC0008F70853018F5223010F452E001C056E040E028E030E003C04F5F220F331F2E1765
:200AE0003F07D0F36295660F660F607C991F9927991F692B4295407F452BBEDF882331F0FD
:200B00001F5F25961017A0F281E001C080E0DF91CF911F910F9108958091280288238CF43E
:200B200003C08EB38823B1F08091E80082FFF9CF8091E8008B778093E80008958EB38823A4
:200B400049F08091E80080FFF9CF8091E8008E778093E80008954091E4005091E50024E601
:200B60008091EC0080FF23C08091E80080FD1DC08EB3882311F482E00895853011F483E0B6
:200B800008958091EB0085FF02C081E008958091E4009091E5008417950711F3222311F4F8
:200BA00084E008952150AC01DBCF80E008958091E80082FFDDCFF9CF3BD03DD08091D80080
:200BC0008F778093D8008091D80080688093D8008091D8008F7D8093D80019BC82E089BD0B
:200BE00009B400FEFDCF1EBA1092260280E060E042E042DF8091E1008E7F8093E1008091E5
:200C0000E20081608093E2008091E20088608093E2008091E0008E7F8093E0000895E3E6F5
:200C2000F0E080818E7F808381E080932702C4CF1092E20008951092E10008951F920F9210
:200C40000FB60F9211242F933F934F935F936F937F938F939F93AF93BF93EF93FF93809170
:200C6000E10080FF16C08091E20080FF12C08091E2008E7F8093E2008091E200806180931E
:200C8000E2008091D80080628093D80019BC1EBABEDB8091E10084FF2DC08091E20084FF9E
:200CA00029C019BC82E089BD09B400FEFDCF8091D8008F7D8093D8008091E1008F7E809355
:200CC000E1008091E2008F7E8093E2008091E20081608093E20080912602882311F084E02C
:200CE00007C08091E30087FD02C081E001C083E08EBB89DB8091E10083FF21C08091E20079
:200D000083FF1DC08091E100877F8093E10082E08EBB109226028091E1008E7F8093E10020
:200D20008091E2008E7F8093E2008091E20080618093E20080E060E042E09EDE1ED1FF9138
:200D4000EF91BF91AF919F918F917F916F915F914F913F912F910F900FBE0F901F9018955C
:200D60001F93DF93CF9300D0CDB7DEB7E8E2F2E08091F100819382E0E033F807C9F74ADBF9
:200D80008091E80083FFE5C08091280290912902953009F46FC0963040F4913091F19130BD
:200DA00070F0933009F0D5C02CC0983009F4A4C0993009F4B3C0963009F0CBC07DC08038F5
:200DC00011F490E014C0823809F0C3C080912C028F708093E9008091EB0090E025E09695BE
:200DE00087952A95E1F7982F91701092E9008091E800877F8093E8009093F1001092F1004C
:200E000086C0882319F0823009F0A3C08F71823009F09FC080912A02882331F520912C02D3
:200E20002F7009F496C02093E9008091EB0080FF1BC0933021F48091EB00806213C0809134
:200E4000EB0080618093EB0081E090E002C0880F991F2A95E2F78093EA001092EA008091B4
:200E6000EB0088608093EB001092E9008091E800877F50C0882309F06CC010912A021F77D4
:200E80008091E3008078812B8093E3008091E800877F8093E80040DE8091E80080FFFCCF69
:200EA0008091E30080688093E300112311F482E001C083E08EBB4DC08058823008F049C0C0
:200EC00080912A0290912B0260912C02AE014F5F5F4F44DDBC01009709F43BC08091E800F7
:200EE000877F8093E80089819A8164DD8091E8008B778093E8002DC0803859F58091E800A9
:200F0000877F8093E800809126028093F1008091E8008E778093E800FFDD1BC08823C9F47B
:200F200090912A029230A8F48091E800877F8093E80090932602F0DD80912602882331F4EB
:200F40008091E30087FD02C081E001C084E08EBB64DA8091E80083FF0AC08091E800877F06
:200F60008093E8008091EB0080628093EB000F900F90CF91DF911F91089508951F938EB3AF
:200F8000882371F01091E9008091EC001092E9008091E80083FF01C0E3DE1F701093E9001B
:200FA0001F910895FC018EB3843029F584899589A689B7890097A105B105E9F086818F7068
:200FC0008093E9008091E80082FF15C08091F200882319F42FEF3FEF04C08091F100282FA2
:200FE00030E08091F200882341F48091E8008B778093E80002C02FEF3FEFC9010895FB0197
:201000002EE0DB011D922A95E9F723E0238326E838E03187208722E138E0338722879587D0
:2010200084870895FC0184859585BCDF9C0197FF02C02EEF3FEFC90108950895FC018EB3CB
:20104000843019F584899589A689B7890097A105B105D9F081818F708093E9008091F20078
:201060008823A9F09091E8008091E8008E778093E80095FD0CC06FDD982F882349F48091C0
:20108000E8008E778093E80003C092E001C090E0892F0895FC018EB3843091F4848995890B
:2010A000A689B7890097A105B10551F081818F708093E9008091E80080FF02C0CF01BECFF9
:2010C00008951F93FC01162F8EB38430E1F484899589A689B7890097A105B105A1F0818195
:2010E0008F708093E9008091E80085FD08C08091E8008E778093E8002EDD882329F4109343
:201100000001000100010001000100010001000100010001000100010001000100010001BF
:2011200000010001000100010001000100010001000100010001000100010001000100019F
:2011400000010001000100010001000100010001000100010001000100010001000100017F
:2011600000010001000100010001000100010001000100010001000100010001000100015F
:2011800010C0913A41F58091E800877F8093E80088E091E067E070E07FD38091E8008B77C7
:2011A0000FC09132C1F48091E800877F8093E80088E091E067E070E0D1D38091E8008E77DC
:2011C0008093E8000895913231F48091E800877F8093E80014C4089582E061EC42E0FBD381
:2011E00083E061E842E1F7D384E060E842E1F3C32F923F924F925F926F927F928F929F9209
:20120000AF92BF92CF92DF92EF92FF920F931F93DF93CF9300D000D0CDB7DEB784B7877F36
:2012200084BF88E10FB6F89480936000109260000FBE80E090E020E80FB6F8942093610032
:20124000809361000FBE11E015BF82E085BF29D48AB1806F8AB98BB18F708BB910936F00E7
:2012600083E0809381008BB18F7080618BB9789479E0672E6AC224E02093E9008091E80058
:2012800082FF62C23DDF182F853419F410920F0106C08857823010F0143519F431DF8DE0A4
:2012A00029C21035E1F31C34D1F3143721F484E43FDF80E01FC2113611F489E51BC2113413
:2012C000F1F41EDF382E330C222471010027F7FC0095102FE0929201F0929301009394019E
:2012E000109395010DDF90E0880F991FAA2797FDA095BA2F8E299F29A02BB12BCCC110378D
:2013000011F483E5F7C1133559F400E011E0D8018D918D010DDFB1E007301B07C1F7EBC183
:20132000163521F481E304DF80E3E4C1133731F482E8FEDE84E9FCDE8EE1DCC11536B9F4FE
:20134000E0E0F0E023E020935700E89507B600FCFDCF35E030935700E89507B600FCFDCFBD
:20136000E058FF4F80E1E030F80761F798CF1C3649F4C6DE8095E1E0F0E0082E6092570060
:20138000E8958DCF123731F4E1E0F0E0609257008491B0C1163431F4E0E0F0E0609257005E
:2013A0008491A8C11E3431F4E3E0F0E0609257008491A0C1113531F4E2E0F0E060925700A0
:2013C000849198C1123631F489E5B2DE80E0B0DE80E890C1123419F0173609F0F0C090DEDA
:2013E000082F8EDEF82E8CDE882E8554823008F080C10A8319822F2D30E089819A81282B34
:20140000392B3C832B83173609F053C091E190935700E895DD2447C0E0909201F09093011A
:201420000091940110919501A6E48A16F9F4ED2DF0E0EE29FF29E4918E2F7ADEDD2081F017
:2014400082E090E0A0E0B0E0E80EF91E0A1F1B1FE0929201F09293010093940110939501BE
:2014600080E0DD2009F481E0D82E18C0D801C701B695A79597958795D7D45ADE82E090E0AE
:20148000A0E0B0E0E80EF91E0A1F1B1FE0929201F09293010093940110939501AB81BC81E7
:2014A0001197BC83AB83EB81FC81EF2B09F0B4CF22C1A0909201B0909301C0909401D090D9
:2014C0009501F6E48F1609F066C023E0F50120935700E89507B600FCFDCF5DC036E4831603
:2014E00089F5992039F1E0909201F0909301009194011091950104DE582E4424872D90E023
:201500008429952921E0F7010C0120935700E895112482E090E0A0E0B0E0E80EF91E0A1F86
:201520001B1FE0929201F0929301009394011093950102C0E5DD782E80E0992009F481E054
:20154000982E23C0E0909201F0909301009194011091950116950795F794E794D1DD682FDC
:20156000C7016AD48091920190919301A0919401B09195010296A11DB11D80939201909382
:201580009301A0939401B0939501AB81BC811197BC83AB8302C077249924EB81FC81EF2B7B
:2015A00009F09CCFF6E48F1609F079CE25E0F50120935700E89507B600FCFDCF70CE13347C
:2015C00071F400919201109193019ADD90E021E0F8010C0120935700E895112460CE13362C
:2015E00019F5E0909201F0909301009194011091950186DDF701E16090E031E00C0130937C
:201600005700E895112482E090E0A0E0B0E0E80EF91E0A1F1B1FE0929201F09293010093C1
:201620009401109395013BCE1D3661F4E0919201F091930195E090935700E89507B600FCED
:20164000FDCF2DCE123551F4E0919201F091930105911491812F6CDD802F4CC0143421F5D1
:20166000E0909201F0909301009194011091950116950795F794E79443DD682FC701DCD37B
:201680008091920190919301A0919401B09195010296A11DB11D8093920190939301A093A0
:2016A0009401B0939501FBCD143609F5E0909201F09093010091940110919501D801C70197
:2016C000B695A79597958795AFD332DD82E090E0A0E0B0E0E80EF91E0A1F1B1FE092920153
:2016E000F0929301009394011093950104C01B3111F08FE31DDD93E09093E9009091E8006E
:201700008091E8008E778093E80095FF04C010C08EB38823C9F08091E80080FFF9CF8091B2
:20172000E8008E778093E80003C08EB3882361F08091E80080FFF9CFA4E0A093E9008091D0
:20174000E8008B778093E8005BD380910F01882309F091CD8091E00081608093E00082E428
:201760009CED9093A1018093A0012CE088E190E00FB6F894A895809360000FBE20936000A1
:20178000FFCFFA01923039F0933051F09130E9F480E191E017C082E291E02EE330E019C07B
:2017A000882329F480E691E024E030E012C0813029F484E691E028E130E00BC0823029F448
:2017C0008EE791E022E130E004C080E090E020E030E091838083C90108959B01AC0107B6E8
:2017E00000FCFDCFF999FECF83E0F90180935700E89507B600FCFDCF81E180935700E895B0
:2018000008959B01AC0107B600FCFDCFF999FECF85E0F90180935700E89507B600FCFDCF33
:2018200081E180935700E89508950F931F938B019C0107B600FCFDCFF999FECF81E0F80107
:201840000A0180935700E89511241F910F91089521E2FC01209357002491822F089529E05E
:20186000FC01209357002491822F0895E1E0F0E089E08093570084910895982F07B600FCC8
:20188000FDCFF999FECF909589E0E1E0F0E0092E80935700E89508959C0140919E01509155
:2018A0009F014617570718F4F90190E03CC06115710511F0AB01F8CF8091E8008E778093EA
:2018C000E80040E050E0F0CF8EB3882309F440C0853009F43FC08091E80083FD3DC08091F0
:2018E000E80082FD2FC08091E80080FF1CC08091F200282F30E007C081918093F100415066
:2019000050402F5F3F4F4115510519F02830310598F390E02830310509F491E08091E800E8
:201920008E778093E8004115510571F6992361F609C08EB3882361F0853061F08091E8007C
:2019400083FD0AC08091E80082FFF3CF80E0089582E0089583E0089581E008959C016115F4
:20196000710529F48091E8008B778093E800F9011FC08EB3882359F1853059F18091E800D7
:2019800083FF02C081E008958091E80082FFF1CF06C08091F10081936150704021F080916C
:2019A000F2008823B1F78091E8008B778093E80061157105F1F605C08EB3882341F0853082
:2019C00041F08091E80080FFF7CF80E0089582E0089583E008958F708093E9008091EB00A5
:2019E00081608093EB001092ED006093EC004093ED008091EE00881F8827881F0895809130
:201A0000980188238CF403C08EB38823B1F08091E80082FFF9CF8091E8008B778093E8007A
:201A200008958EB3882349F08091E80080FFF9CF8091E8008E778093E80008953BD03DD0F6
:201A40008091D8008F778093D8008091D80080688093D8008091D8008F7D8093D80019BC3B
:201A600082E089BD09B400FEFDCF1EBA1092960180E060E042E0AFDF8091E1008E7F8093C4
:201A8000E1008091E20081608093E2008091E20088608093E2008091E0008E7F8093E000DB
:201AA0000895E3E6F0E080818E7F808381E080939701C4CF1092E20008951092E1000895FF
:201AC0001F920F920FB60F9211242F933F934F935F936F937F938F939F93AF93BF93EF9333
:201AE000FF938091E10080FF16C08091E20080FF12C08091E2008E7F8093E2008091E200E1
:201B000080618093E2008091D80080628093D80019BC1EBA74D18091E10084FF2DC08091D4
:201B2000E20084FF29C019BC82E089BD09B400FEFDCF8091D8008F7D8093D8008091E10081
:201B40008F7E8093E1008091E2008F7E8093E2008091E20081608093E20080919601882373
:201B600011F084E007C08091E30087FD02C081E001C083E08EBB43D18091E10083FF21C0C8
:201B80008091E20083FF1DC08091E100877F8093E10082E08EBB109296018091E1008E7F24
:201BA0008093E1008091E2008E7F8093E2008091E20080618093E20080E060E042E00BDFC7
:201BC0001ED1FF91EF91BF91AF919F918F917F916F915F914F913F912F910F900FBE0F90AB
:201BE0001F9018951F93DF93CF9300D0CDB7DEB7E8E9F1E08091F100819381E0E03AF807E8
:201C0000C9F7AEDA8091E80083FFE5C08091980190919901953009F46FC0963040F491304B
:201C200091F1913070F0933009F0D5C02CC0983009F4A4C0993009F4B3C0963009F0CBC018
:201C40007DC0803811F490E014C0823809F0C3C080919C018F708093E9008091EB0090E0FB
:201C600025E0969587952A95E1F7982F91701092E9008091E800877F8093E8009093F10020
:201C80001092F10086C0882319F0823009F0A3C08F71823009F09FC080919A01882331F522
:201CA00020919C012F7009F496C02093E9008091EB0080FF1BC0933021F48091EB0080623C
:201CC00013C08091EB0080618093EB0081E090E002C0880F991F2A95E2F78093EA0010923D
:201CE000EA008091EB0088608093EB001092E9008091E800877F50C0882309F06CC010910D
:201D00009A011F778091E3008078812B8093E3008091E800877F8093E80071DE8091E800C2
:201D200080FFFCCF8091E30080688093E300112311F482E001C083E08EBB4DC080588230E8
:201D400008F049C080919A0190919B0160919C01AE014F5F5F4F15DDBC01009709F43BC042
:201D60008091E800877F8093E80089819A8194DD8091E8008B778093E8002DC0803859F5EA
:201D80008091E800877F8093E800809196018093F1008091E8008E778093E80030DE1BC0BB
:201DA0008823C9F490919A019230A8F48091E800877F8093E8009093960121DE8091960146
:201DC000882331F48091E30087FD02C081E001C084E08EBB01DA8091E80083FF0AC08091F9
:201DE000E800877F8093E8008091EB0080628093EB000F900F90CF91DF911F910895089526
:201E00001F938EB3882371F01091E9008091EC001092E9008091E80083FF01C0E3DE1F7025
:201E20001093E9001F910895F999FECF92BD81BDF89A992780B50895262FF999FECF1FBA2C
:201E400092BD81BD20BD0FB6F894FA9AF99A0FBE01960895F894FFCF4C5546414344430053
:201E600000000000000008011201100102000008EB034A2000010102000109023E00020182
:201E800000803209040000010202010005240010010424020205240600010705820308004E
:201EA000FF09040100020A00000007050402100005070583021000050403090418034400C9
:201EC000650061006E002000430061006D00650072006100000012034C0055004600410028
:201EE00020004300440043000000FFFFFFFFFFFFFFFFFFFFFFFFFFFFFFFFFFFFFFFFFFFF0E
:201F0000FFFFFFFFFFFFFFFFFFFFFFFFFFFFFFFFFFFFFFFFFFFFFFFFFFFFFFFFFFFFFFFFE1
:201F2000FFFFFFFFFFFFFFFFFFFFFFFFFFFFFFFFFFFFFFFFFFFFFFFFFFFFFFFFFFFFFFFFC1
:201F4000FFFFFFFFFFFFFFFFFFFFFFFFFFFFFFFFFFFFFFFFFFFFFFFFFFFFFFFFFFFFFFFFA1
:201F6000FFFFFFFFFFFFFFFFFFFFFFFFFFFFFFFFFFFFFFFFFFFFFFFFFFFFFFFFFFFFFFFF81
:201F8000FFFFFFFFFFFFFFFFFFFFFFFFFFFFFFFFFFFFFFFFFFFFFFFFFFFFFFFFFFFFFFFF61
:201FA0001CCC2FCC42CC54CC5ACC60CC66CC08950895089508950895FFFFFFFFFFFFFFFF83
:201FC000FFFFFFFFFFFFFFFFFFFFFFFFFFFFFFFFFFFFFFFFFFFFFFFFFFFFFFFFFFFFFFFF21
:201FE000DFCFDFCFDFCFDFCFDFCFDFCFDFCFDFCFDFCFDFCFDFCFDFCF0010000000DFFBDCF3
:00000001FF
