:1000000039C0000053C0000051C000004FC00000C4
:100010004DC000004BC0000049C0000047C00000B8
:1000200045C0000043C0000041C0000007C60000FA
:100030003DC000003BC0000039C0000037C00000D8
:10004000D3C1000033C0000031C000002FC0000049
:100050002DC000002BC0000029C0000027C00000F8
:1000600025C0000023C0000021C000001FC0000008
:100070001DC0000011241FBECFEFD2E0DEBFCDBFF8
:1000800011E0A0E0B1E0E2EBF9E102C005900D92D1
:10009000A83FB107D9F712E0A8EFB1E001C01D9267
:1000A000A033B107E1F796D30C94D70CA9CFCF9327
:1000B000DF93EC01DB01809117028230F1F1833094
:1000C00038F4882309F49DC0813009F098C007C036
:1000D000833009F453C0843009F091C07CC0809112
:1000E0000302909104022091010230910202280F34
:1000F000391FE0910502F091060265E070E00E9470
:100100006809BE01680F791FE617F70708F4BF01F9
:100110006217730748F08091FA019091FB01B901D1
:100120002817390708F4BC017497EC17FD0708F08D
:100130006AC01D921C9282E04BC08D919C911197D8
:10014000E0910902F0910A028E179F0748F420916E
:10015000050230910602609107027091080220C0EA
:100160006091070270910802CB0188978C179D0758
:1001700008F049C01D921C9283E02AC08D919C9189
:100180001197E0910D02F0910E028E179F0790F4E7
:10019000209107023091080260910B0270910C02CD
:1001A000621B730B0E946809BF010E949309620FD2
:1001B000731F29C060910B0270910C026C177D07B0
:1001C00010F51D921C921092FE011092FD0184E028
:1001D0008093170218C06091010270910202809111
:1001E0000F0290911002681B790B8091FA01909197
:1001F000FB016817790738F41092170204C01092B7
:10020000170260E070E07093020260930102CB017C
:10021000DF91CF9108952091FA013091FB01821B6B
:10022000930B6AE678E10E94680960E575E00E9438
:100230009309CB0108952F923F924F925F926F9254
:100240007F928F929F92AF92BF92CF92DF92EF9266
:10025000FF920F931F93DF93CF9300D000D000D075
:10026000CDB7DEB73C017C0100E010E080E090E01B
:10027000E61AF70A080B190B6114710459F410926D
:10028000FE011092FD01F0920002E092FF0120E0D9
:1002900030E090C0209111023091120240E050E015
:1002A000C801B7010E947A0969837A838B839C8392
:1002B000C090FD01D090FE01609113027091140274
:1002C000C6010E9468091C01442455246091FF0165
:1002D00070910002882777FD8095982F6E197F090D
:1002E000800B910B209115023091160240E050E0F6
:1002F0000E947A094B015C01C6018E0D9F1D2EEFF5
:100300008037920714F480E79EEF9E838D83815996
:10031000914024F040E951E05E834D83F092000269
:10032000E092FF01C30177DFA0E0B0E0820D931DF2
:10033000A41DB51D29813A814B815C81820F931FD9
:10034000A41FB51F880D991DAA1DBB1D8A3638E153
:10035000930730E0A30730E0B3072CF04D815E81B6
:100360004C155D057CF0B7FF05C0ED81FE81CE1612
:10037000DF0644F08B36F8E19F07F0E0AF07F0E0CE
:10038000BF0730F42D813E813093FE012093FD01A3
:100390008B3638E1930730E0A30730E0B3071CF059
:1003A0002AE638E107C0B7FF04C080E090E0A0E093
:1003B000B0E09C01C90126960FB6F894DEBF0FBECF
:1003C000CDBFCF91DF911F910F91FF90EF90DF9004
:1003D000CF90BF90AF909F908F907F906F905F90E5
:1003E0004F903F902F9008951F920F920FB60F924B
:1003F00011248F9381E08093F9018F910F900FBEAC
:100400000F901F90189581E08093F8010895109245
:10041000F80108958AE591E0AFC68AE591E085C6C6
:100420000F931F93DF93CF9300D000D0CDB7DEB7EB
:1004300015B800000000FE0131969E012B5F3F4F72
:100440001EBC0DB407FEFDCF8EB58193E217F307F6
:10045000B9F7998197FF03C000E010E00CC08A81D2
:1004600086958695092F10E046E0000F111F4A95EA
:10047000E1F7080F111D8B8187FF05C01092FB016A
:100480001092FA0113C02C8122952F7090E034E075
:10049000880F991F3A95E1F7820F911D96958795E0
:1004A000969587959093FB018093FA018A8180FF4E
:1004B00021C000D000D000D0EDB7FEB7319688E162
:1004C00092E0ADB7BEB712969C938E93119780E0E1
:1004D00091E0938382838C8190E087709070958304
:1004E000848377D78DB79EB706960FB6F8949EBFD4
:1004F0000FBE8DBF81E085B9C8010F900F900F909E
:100500000F90CF91DF911F910F9108958DB79EB7F6
:1005100048970FB6F8949EBF0FBE8DBFEDB7FEB7DC
:10052000319688E192E0ADB7BEB712969C938E9358
:1005300011978AE091E093838283809103029091E6
:10054000040295838483809105029091060297832B
:10055000868380910702909108029187808780911D
:10056000090290910A029387828780910B029091F1
:100570000C029587848780910D0290910E029787D7
:10058000868780910F0290911002918B808B8091D1
:10059000110290911202938B828B809113029091A1
:1005A0001402958B848B8091150290911602978B83
:1005B000868B0FD78DB79EB748960FB6F8949EBF1F
:1005C0000FBE8DBF089584B7877F84BF88E10FB6C3
:1005D000F89480936000109260000FBE83E084B9AD
:1005E000289A2998109285001092840082E88093BE
:1005F00080008CED8093810084E080936F002AE678
:1006000038E1309387002093860081E090E090935A
:100610008B0080938A00309389002093880080E4C7
:1006200087B918B81AB880E58CBD81E08DBDF7D2C6
:100630008AE591E068E172E0E2C4EF92FF920F93E5
:100640001F93DF93CF93CDB7DEB764970FB6F894BF
:10065000DEBF0FBECDBF8E010F5F1F4F55E1E52EF0
:10066000F12CEC0EFD1E88E192E071D62FEF8F3F4A
:100670009207C9F3F80181938F01EE15FF0599F7F1
:10068000998180E02A8130E0822B932B90930402A1
:10069000809303029B8180E02C8130E0822B932B9E
:1006A00090930602809305029D8180E02E8130E0C8
:1006B000822B932B90930802809307029F8180E006
:1006C000288530E0822B932B90930A0280930902B5
:1006D000998580E02A8530E0822B932B90930C0241
:1006E00080930B029B8580E02C8530E0822B932B3E
:1006F00090930E0280930D029D8580E02E8530E060
:10070000822B932B9093100280930F029F8580E0A1
:10071000288930E0822B932B909312028093110250
:10072000998980E02A8930E0822B932B90931402E0
:10073000809313029B8980E02C8930E0822B932BDD
:10074000909316028093150283E092E060E070E0DF
:1007500044E150E00E94090C64960FB6F894DEBFA5
:100760000FBECDBFCF91DF911F910F91FF90EF9002
:10077000089588E192E0EBD5813219F588E192E0A5
:10078000E6D52FEF8F3F9207C9F3843421F481E03F
:100790008093FC010895843619F41092FC010895A9
:1007A000873509F44ACF833521F481E0809317021D
:1007B0000895883419F41092170208958F3409F4BB
:1007C000A5CE089583E092E060E070E044E150E05F
:1007D0000C94F90B2F923F924F925F927F928F92DF
:1007E0009F92AF92BF92CF92DF92EF92FF920F93C0
:1007F0001F93DF93CF9300D0CDB7DEB71A82198253
:10080000E2DEE0DF789481E08093170209DE7C016C
:100810008E010F5F1F4FB8014ADC5C0189819A810C
:1008200001969A838983CC24DD24E8E18E2EE2E0D0
:100830009E2E7AE2272E71E0372E64E5462E61E087
:10084000562E702E012F8091F801882329F091DF18
:100850008AE591E01FD492D38091F801882309F4AE
:100860005AC0DD2009F457C02091880030918900DA
:100870008DB79EB70E970FB6F8949EBF0FBE8DBF73
:10088000EDB7FEB73196ADB7BEB712969C928E9279
:10089000119733822282F582E4828091FA0190914D
:1008A000FB0197838683B186A08633872287809158
:1008B0001702848715868DD58DB79EB70E960FB615
:1008C000F8949EBF0FBE8DBF8091FC018823E9F094
:1008D00000D000D000D0EDB7FEB73196ADB7BEB7AF
:1008E00012969C928E921197538242828091FD01C2
:1008F0009091FE01958384836CD58DB79EB7069643
:100900000FB6F8949EBF0FBE8DBF8AE090E068E1FD
:1009100072E070D5DD248091F901882309F493CF2A
:1009200095E0C91611F0C3940DC0C701672D702F53
:10093000BEDB5C0189819A8101969A838983CC24EC
:10094000DD24D3946DDD7C011092F901C501B7015E
:1009500072DC909389008093880075CFFA01923001
:1009600039F0933051F09130E9F485E791E017C008
:1009700087E891E02EE330E019C0882329F485EC64
:1009800091E024E030E012C0813029F489EC91E05C
:1009900028E130E00BC0823029F483EE91E022E1BF
:1009A00030E004C080E090E020E030E0918380837C
:1009B000C90108959C0140912E0250912F024617C3
:1009C000570718F4F90190E03CC06115710511F06A
:1009D000AB01F8CF8091E8008E778093E80040E08B
:1009E00050E0F0CF8EB3882309F440C0853009F47D
:1009F0003FC08091E80083FD3DC08091E80082FD0A
:100A00002FC08091E80080FF1CC08091F200282F49
:100A100030E007C081918093F100415050402F5F3A
:100A20003F4F4115510519F02830310598F390E0FA
:100A30002830310509F491E08091E8008E778093A9
:100A4000E8004115510571F6992361F609C08EB38E
:100A5000882361F0853061F08091E80083FD0AC051
:100A60008091E80082FFF3CF80E0089582E008954E
:100A700083E0089581E008958F708093E90080916C
:100A8000EB0081608093EB001092ED006093EC002E
:100A90004093ED008091EE00881F8827881F0895FD
:100AA0000F931F93CF93DF93062FEC0110E02AC022
:100AB0009881992329F16B81E981FA812C81892F11
:100AC0008F70853018F5223010F452E001C056E0E6
:100AD00040E028E030E003C04F5F220F331F2E17A5
:100AE0003F07D0F36295660F660F607C991F9927C8
:100AF000991F692B4295407F452BBEDF882331F03B
:100B00001F5F25961017A0F281E001C080E0DF9101
:100B1000CF911F910F9108958091280288238CF422
:100B200003C08EB38823B1F08091E80082FFF9CF33
:100B30008091E8008B778093E80008958EB3882336
:100B400049F08091E80080FFF9CF8091E8008E772E
:100B50008093E80008954091E4005091E50024E678
:100B60008091EC0080FF23C08091E80080FD1DC0D3
:100B70008EB3882311F482E00895853011F483E068
:100B800008958091EB0085FF02C081E00895809177
:100B9000E4009091E5008417950711F3222311F4E6
:100BA00084E008952150AC01DBCF80E0089580916E
:100BB000E80082FFDDCFF9CF3BD03DD08091D80057
:100BC0008F778093D8008091D80080688093D80078
:100BD0008091D8008F7D8093D80019BC82E089BDB8
:100BE00009B400FEFDCF1EBA1092260280E060E03C
:100BF00042E042DF8091E1008E7F8093E1008091AE
:100C0000E20081608093E2008091E200886080933E
:100C1000E2008091E0008E7F8093E0000895E3E69B
:100C2000F0E080818E7F808381E080932702C4CFB3
:100C30001092E20008951092E10008951F920F9221
:100C40000FB60F9211242F933F934F935F936F939F
:100C50007F938F939F93AF93BF93EF93FF93809175
:100C6000E10080FF16C08091E20080FF12C08091F9
:100C7000E2008E7F8093E2008091E20080618093A9
:100C8000E2008091D80080628093D80019BC1EBA1F
:100C9000BEDB8091E10084FF2DC08091E20084FFE3
:100CA00029C019BC82E089BD09B400FEFDCF809146
:100CB000D8008F7D8093D8008091E1008F7E809353
:100CC000E1008091E2008F7E8093E2008091E2005B
:100CD00081608093E20080912602882311F084E0F5
:100CE00007C08091E30087FD02C081E001C083E07E
:100CF0008EBB89DB8091E10083FF21C08091E200FF
:100D000083FF1DC08091E100877F8093E10082E036
:100D10008EBB109226028091E1008E7F8093E100CD
:100D20008091E2008E7F8093E2008091E2008061FA
:100D30008093E20080E060E042E09EDE1ED1FF9101
:100D4000EF91BF91AF919F918F917F916F915F9143
:100D50004F913F912F910F900FBE0F901F901895BC
:100D60001F93DF93CF9300D0CDB7DEB7E8E2F2E078
:100D70008091F100819382E0E033F807C9F74ADB04
:100D80008091E80083FFE5C08091280290912902BC
:100D9000953009F46FC0963040F4913091F1913064
:100DA00070F0933009F0D5C02CC0983009F4A4C07D
:100DB000993009F4B3C0963009F0CBC07DC08038BB
:100DC00011F490E014C0823809F0C3C080912C0265
:100DD0008F708093E9008091EB0090E025E096957C
:100DE00087952A95E1F7982F91701092E9008091EC
:100DF000E800877F8093E8009093F1001092F10063
:100E000086C0882319F0823009F0A3C08F71823028
:100E100009F09FC080912A02882331F520912C028D
:100E20002F7009F496C02093E9008091EB0080FFB9
:100E30001BC0933021F48091EB00806213C080913D
:100E4000EB0080618093EB0081E090E002C0880FAE
:100E5000991F2A95E2F78093EA001092EA008091A8
:100E6000EB0088608093EB001092E9008091E8002D
:100E7000877F50C0882309F06CC010912A021F7729
:100E80008091E3008078812B8093E3008091E800DB
:100E9000877F8093E80040DE8091E80080FFFCCFF0
:100EA0008091E30080688093E300112311F482E0D5
:100EB00001C083E08EBB4DC08058823008F049C02D
:100EC00080912A0290912B0260912C02AE014F5F1B
:100ED0005F4F44DDBC01009709F43BC08091E800FE
:100EE000877F8093E80089819A8164DD8091E800A2
:100EF0008B778093E8002DC0803859F58091E80009
:100F0000877F8093E800809126028093F100809192
:100F1000E8008E778093E800FFDD1BC08823C9F4CA
:100F200090912A029230A8F48091E800877F809304
:100F3000E80090932602F0DD80912602882331F4A8
:100F40008091E30087FD02C081E001C084E08EBB98
:100F500064DA8091E80083FF0AC08091E800877F0F
:100F60008093E8008091EB0080628093EB000F900B
:100F70000F90CF91DF911F91089508951F938EB325
:100F8000882371F01091E9008091EC001092E90043
:100F90008091E80083FF01C0E3DE1F701093E90039
:100FA0001F910895FC018EB3843029F584899589B9
:100FB000A689B7890097A105B105E9F086818F70F0
:100FC0008093E9008091E80082FF15C08091F200D3
:100FD000882319F42FEF3FEF04C08091F100282FF0
:100FE00030E08091F200882341F48091E8008B7713
:100FF0008093E80002C02FEF3FEFC9010895FB0185
:101000002EE0DB011D922A95E9F723E0238326E8F1
:1010100038E03187208722E138E0338722879587BF
:1010200084870895FC0184859585BCDF9C0197FF2A
:1010300002C02EEF3FEFC90108950895FC018EB361
:10104000843019F584899589A689B7890097A10507
:10105000B105D9F081818F708093E9008091F20011
:101060008823A9F09091E8008091E8008E77809322
:10107000E80095FD0CC06FDD982F882349F480911E
:10108000E8008E778093E80003C092E001C090E012
:10109000892F0895FC018EB3843091F48489958959
:1010A000A689B7890097A105B10551F081818F709C
:1010B0008093E9008091E80080FF02C0CF01BECF9D
:1010C00008951F93FC01162F8EB38430E1F48489B8
:1010D0009589A689B7890097A105B105A1F08181FD
:1010E0008F708093E9008091E80085FD08C08091B1
:1010F000E8008E778093E8002EDD882329F4109392
:10110000F10080E001C082E01F910895282FFB01CB
:1011100084859585622FD5DF882319F420E030E09F
:1011200002C02FEF3FEFC9010895CF93DF93EC0189
:101130004096FC018BE0DF011D928A95E9F782E081
:101140008C83898783E08E87CE01019661E0A8DCDD
:10115000882371F0CE01069661E0A2DC882341F07D
:10116000CE010B9661E09CDC882319F081E001C080
:1011700080E0DF91CF910895CF93DF93EC018091D0
:10118000E80083FFA2C0888190E020912C0230917A
:101190002D022817390709F098C080912902813261
:1011A00069F0823220F4803209F08FC03CC0823274
:1011B00009F46AC0833209F088C079C0809128029E
:1011C000813A09F082C08091E800877F8093E8002F
:1011D0008091E80080FFFCCF8C899D89AE89BF8912
:1011E0008093F100292F3A2F4B2F55272093F100A0
:1011F0009D01442755272093F1008B2F9927AA277B
:10120000BB278093F100888D8093F100898D8093B6
:10121000F1008A8D8093F1008091E8008E778093B1
:10122000E8007ADC52C080912802813209F04DC07A
:101230008091E800877F8093E80004C08EB3882304
:1012400009F443C08091E80082FFF8CF8091F1005B
:101250009091F1002091F1003091F1008C8B9D8BE9
:101260002E8B3F8B8091F100888F8091F100898FC8
:101270008091F1008A8F8091E8008B778093E8005D
:101280004BDCCE01DADE21C0809128028132E9F404
:101290008091E800877F8093E8003EDC80912A02FD
:1012A00090912B02998B888BCE01C7DE0EC0809166
:1012B0002802813251F48091E800877F8093E80012
:1012C0002BDCCE0160912A02B8DEDF91CF91089528
:1012D0005527002480FF02C0060E571F660F771F98
:1012E0006115710521F096958795009799F7952FCF
:1012F000802D0895FF27EE27BB27AA2760FF04C093
:10130000A20FB31FE41FF51F220F331F441F551FE9
:10131000969587957795679589F70097760771F782
:10132000CF01BD010895AA1BBB1B51E107C0AA1F35
:10133000BB1FA617B70710F0A61BB70B881F991F76
:101340005A95A9F780959095BC01CD010895CF934A
:10135000DF93EC014B8140FF1AC046FF0AC04F7B70
:101360004B838E819F8101969F838E838A81282F54
:101370002BC042FF13C0E881F9818081282F3327D9
:1013800027FD30952115310529F440624B832FEF5D
:101390003FEF1BC03196F983E88311C0EA85FB85D6
:1013A000CE0109959C0197FF0AC09B812F5F3F4F9B
:1013B00011F080E201C080E1892B8B83E8CF8E8120
:1013C0009F8101969F838E8330E0C901DF91CF9189
:1013D0000895A0E0B0E0EEEEF9E0C2C29E01275F02
:1013E0003F4F8D819E816F817885A9012FD02096F6
:1013F000E2E0D2C20F931F93CF93DF938C01EB01F6
:101400008B8181FF1BC082FF0DC02E813F818C81AB
:101410009D812817390764F4E881F9810193F983E4
:10142000E88306C0E885F985802F0995892B31F47A
:101430008E819F8101969F838E8302C00FEF1FEFE5
:10144000C801DF91CF911F910F910895ABE0B0E0FB
:10145000EBE2FAE075C24C012B015A01FC01178244
:101460001682838181FD03C06FEF7FEFBEC11E0135
:101470000894211C311C9FE3692EF4013381F20191
:1014800033FD859133FF81912F01882309F4AAC18F
:10149000853239F433FD859133FF81912F018532F7
:1014A00021F490E0B401A6DFE8CF982FFF24EE24CA
:1014B0007724FFE1FF15D0F09B3269F09C3228F4CD
:1014C000903259F0933291F40EC09D3249F090332E
:1014D00069F441E02AC052E0F52A84E0F82A2EC0DF
:1014E00098E0F92A2BC0E0E1FE2A28C0F7FC2FC0C3
:1014F000292F20532A30A0F4F6FE08C0872D90E053
:101500006AE070E0E5DE782E720E18C08E2D90E055
:101510006AE070E0DDDEE82EE20EF0E2FF2A0EC0A7
:101520009E3229F4F6FC5EC140E4F42A07C09C36E2
:1015300019F450E8F52A02C0983649F4F20133FD57
:10154000959133FF91912F01992309F0B2CF892F03
:101550008554833018F08052833030F444E050E0FA
:10156000A40EB51E69820FC0933631F0933779F01F
:10157000933509F052C01FC0F5018081898342E094
:1015800050E0A40EB51E610101E010E011C0F501AC
:10159000C080D180F6FC03C06FEF7FEF02C0672DE3
:1015A00070E042E050E0A40EB51EC6015ED18C0191
:1015B0005FE7F52213C0F501C080D180F6FC03C0BF
:1015C0006FEF7FEF02C0672D70E042E050E0A40EA5
:1015D000B51EC6013FD18C0150E8F52AF3FE06C0C6
:1015E00018C080E290E0B40105DFEA948E2D90E00F
:1015F00008171907B0F30DC0F601F7FC8591F7FE47
:1016000081916F0190E0B401F5DEE110EA940150A0
:1016100010400115110581F7E2C0943611F099369A
:1016200061F5F7FE08C0F5012081318142815381C7
:1016300084E090E00AC0F501808191819C014427FB
:1016400037FD4095542F82E090E0A80EB91E9FE62A
:10165000F92257FF09C050954095309521953F4F8D
:101660004F4F5F4FE0E8FE2ACA01B901A1012AE00D
:1016700030E006D1D82ED2183FC0953729F41F2D5F
:101680001F7E2AE030E01DC01F2D197F9F3661F0BC
:10169000903720F4983509F0A5C00FC0903739F085
:1016A000983709F09FC004C028E030E00AC01061FC
:1016B00014FD146020E130E004C014FD166020E148
:1016C00032E017FF08C0F50160817181828193814A
:1016D00044E050E008C0F50180819181BC0180E0C8
:1016E00090E042E050E0A40EB51EA101C9D0D82E72
:1016F000D2188FE7F82EF122F6FE0BC05EEFF5222E
:10170000D71438F4F4FE07C0F2FC05C08FEEF822BF
:1017100002C01D2D01C0172DF4FE0DC0FE01ED0D00
:10172000F11D8081803319F499EEF92208C01F5F02
:10173000F2FE05C003C08F2D867809F01F5F0F2DC4
:10174000F3FC13C0F0FE0EC01E1510F07D2C0AC075
:101750007D2C7E0C711A1E2D05C080E290E0B40134
:1017600049DE1F5F1E15C8F304C01E1510F4E11AF0
:1017700001C0EE2404FF0EC080E390E0B4013ADE25
:1017800002FF1BC001FD03C088E790E00EC088E5A2
:1017900090E00BC0802F867881F001FF02C08BE2C1
:1017A00001C080E2F7FC8DE290E0B40123DE05C0C9
:1017B00080E390E0B4011EDE7A94D714C8F3DA9483
:1017C000F101ED0DF11D808190E0B40113DEDD200B
:1017D000B1F705C080E290E0B4010CDEEA94EE209F
:1017E000C9F74BCEF40166817781CB012B96E2E1FC
:1017F000C3C0DC01CB01FC01F999FECF06C0F2BDEC
:10180000E1BDF89A319600B40D9241505040B8F7BE
:101810000895DC01A40FB51F4150504040F0CB01AA
:10182000840F951F2E9105D041505040D8F7089550
:10183000262FF999FECF92BD81BDF89A019700B489
:10184000021639F01FBA20BD0FB6F894FA9AF99A29
:101850000FBE0895FC010590615070400110D8F74B
:10186000809590958E0F9F1F0895FC0161507040E8
:1018700001900110D8F7809590958E0F9F1F0895C5
:10188000FA01AA27283061F1203191F1E8946F9391
:101890006E7F6E5F7F4F8F4F9F4FAF4FB1E040D055
:1018A000B4E03ED0670F781F891F9A1FA11D680FF3
:1018B000791F8A1F911DA11D6A0F711D811D911D28
:1018C000A11D22D009F468943F91062E000C301916
:1018D000000C000C3019305D3193CEF6CF01089525
:1018E000462F4770405D4193B3E00FD0C9F7F6CF64
:1018F000462F4F70405D4A3318F0495D31FD40522C
:10190000419302D0A9F7EACFB4E0A69597958795C1
:1019100077956795BA95C9F70097610571050895A0
:101920009B01AC010A2E069457954795379527954C
:10193000BA95C9F7620F731F841F951FA01D0895E4
:101940002F923F924F925F926F927F928F929F92CF
:10195000AF92BF92CF92DF92EF92FF920F931F93BD
:10196000CF93DF93CDB7DEB7CA1BDB0B0FB6F8946E
:10197000DEBF0FBECDBF09942A88398848885F84AE
:101980006E847D848C849B84AA84B984C884DF801F
:10199000EE80FD800C811B81AA81B981CE0FD11D03
:1019A0000FB6F894DEBF0FBECDBFED010895F894D9
:0219B000FFCF67
:1019B2004661756C743A25750A002125752C2575CA
:1019C2002C25752C25752C25752C25752C25752C0B
:1019D20025752C25752C25750A0074656D703A25C0
:1019E200752C726F6F6D3A25752C74617267657410
:1019F2003A25752C50574D3A25752C7374617465D0
:101A02003A2564002C493A25640000831000000145
:101A12000410000001820800000100000000000024
:101A220000000000001201100102000008EB034A4E
:101A32002000010102000109023E00020100803281
:101A4200090400000102020100052400100104241F
:101A520002020524060001070582030800FF0904AB
:101A62000100020A00000007050402100005070534
:101A72008302100005040309041803440065006191
:101A8200006E002000430061006D0065007200617D
:101A920000000012034C00550046004100200043A4
:081AA2000044004300000000B5
:00000001FF
