:1000000039C0000053C0000051C000004FC00000C4
:100010004DC000004BC0000049C0000047C00000B8
:1000200045C0000043C0000041C00000A1C5000061
:100030003DC000003BC0000039C0000037C00000D8
:1000400000C4000033C0000031C000002FC0000019
:100050002DC000002BC0000029C0000027C00000F8
:1000600025C0000023C0000021C000001FC0000008
:100070001DC0000011241FBECFEFD4E0DEBFCDBFF6
:1000800011E0A0E0B1E0EAE3F9E102C005900D92D1
:10009000A83FB107D9F722E0A8EFB1E001C01D9257
:1000A000A033B207E1F735D30C949B0CA9CF44E100
:1000B00050E060E070E08CE092E00C94610CFF9204
:1000C0000F931F93CF93DF93CDB7DEB764970FB62F
:1000D000F894DEBF0FBECDBF8E010F5F1F4F84E1CE
:1000E000F82EF00E88EF91E00E94A3098F3F2FEFCA
:1000F0009207C1F3F80181938F01FE12F3CF89813A
:1001000090E0982F88272A81822B90930D0280936C
:100110000C028B8190E0982F88272C81822B909362
:100120000F0280930E028D8190E0982F88272E81F8
:10013000822B90931102809310028F8190E0982F70
:1001400088272885822B9093130280931202898539
:1001500090E0982F88272A85822B90931502809310
:1001600014028B8590E0982F88272C85822B909302
:100170001702809316028D8590E0982F88272E8590
:10018000822B90931902809318028F8590E0982F0C
:1001900088272889822B90931B0280931A028989D1
:1001A00090E0982F88272A89822B90931D028093B4
:1001B0001C028B8990E0982F88272C89822B9093A2
:1001C0001F0280931E0244E150E060E070E08CE08A
:1001D00092E064960FB6F894DEBF0FBECDBFDF91FC
:1001E000CF911F910F91FF900C94710CECE0F2E015
:1001F00083898F9382898F9381898F9380898F934D
:1002000087858F9386858F9385858F9384858F933C
:1002100083858F9382858F9381858F9380858F933C
:1002200087818F9386818F9385818F9384818F932C
:1002300083818F9382818F9381818F9380818F932C
:100240008DE991E09F938F9388EF91E09F938F9337
:100250000E94E1098DB79EB748960FB6F8949EBFED
:100260000FBE8DBF0895CF93DF93DC01FB0190910A
:100270000B029230D9F130F4992309F493C09130F4
:1002800041F08EC0933009F44EC0943009F474C02C
:1002900087C080910C0290910D02C0912002D091F4
:1002A0002102C80FD91F20910E0230910F0265E084
:1002B00070E0A2D78A0F9B1F2817390708F4C901DD
:1002C0008C179D0748F04091220250912302CE01E5
:1002D000C417D50708F4CA01245131092A173B076E
:1002E00008F062C01182108222E043C080819181B7
:1002F000C0911202D091130220911002309111028C
:100300008C179D0728F4E0910E02F0910F021CC09B
:10031000C901285231092A173B0708F045C011824C
:10032000108223E026C080819181C0911602D09175
:10033000170220911402309115028C179D0770F45A
:10034000E0911002F0911102B9016E1B7F0B54D79E
:10035000BE0163D7CB018E0F9F1F26C0C9012A178C
:100360003B0710F51182108210920A0210920902C6
:1003700024E020930B0218C080912002909121026A
:100380002091180230911902821B930B20912202B6
:10039000309123028217930738F410920B0204C0A5
:1003A00010920B0280E090E0909321028093200253
:1003B000DF91CF91089588EF91E0C5D7813219F58B
:1003C00088EF91E0C0D78F3F2FEF9207C9F38434B5
:1003D00021F481E0809306020895843619F4109286
:1003E00006020895873509F46ACE833521F481E049
:1003F00080930B020895883419F410920B0208952B
:100400008F3409F4F3CE08950F931F93CF93DF93A6
:1004100000D000D0CDB7DEB715B800000000FE0157
:10042000319684E08E0F1EBC0DB407FEFDCF9EB545
:1004300091938E13F8CF09819A8107FD0CC010E0CB
:1004400066E0000F111F6A95E1F7892F8695869562
:10045000080F111D02C000E010E02B8127FF05C02E
:10046000109223021092220213C08C8182958F7009
:1004700030E044E0220F331F4A95E1F7280F311D89
:10048000369527953695279530932302209322029F
:1004900090FF13C08C8187701F928F938DEB91E03A
:1004A0009F938F9388EF91E09F938F938AD70F90BC
:1004B0000F900F900F900F900F9081E085B9C801B9
:1004C0000F900F900F900F90DF91CF911F910F9190
:1004D000089584B7877F84BF0FB6F894A89580915C
:1004E0006000886180936000109260000FBE90E011
:1004F00080E80FB6F89480936100909361000FBE7E
:1005000083E084B9289A299810928500109284007B
:1005100082E8809380008CED8093810084E080935A
:100520006F008AE698E1909387008093860021E02F
:1005300030E030938B0020938A0090938900809361
:10054000880080E487B918B81AB880E58CBD81E0CE
:100550008DBDFFD268EF71E080E091E08AC5209107
:10056000220230912302821B930B6AE678E144D683
:1005700060E575E052D6CB0108952F923F924F92DD
:100580005F926F927F928F929F92AF92BF92CF9223
:10059000DF92EF92FF920F931F93CF93DF9300D0E0
:1005A00000D000D0CDB7DEB78C012C01612C712CAE
:1005B000461A570A61087108892B49F410920A02F9
:1005C00010920902509208024092070287C060917F
:1005D0001A0270911B0280E090E0A301920131D6D3
:1005E00069017A018091090290910A029E838D83AC
:1005F00060911C0270911D02FFD54C01A12CB12C01
:100600006091070270910802CB01770FAA0BBB0B18
:10061000BC01CD01641975098609970920911E0254
:1006200030911F0240E050E00CD629833A834B837F
:100630005C838D819E81840D951D8037AEEF9A0776
:1006400014F480E79EEF1C018139914024F080E989
:10065000282E33243394C801509208024092070296
:100660007EDFC80ED91EE11CF11C8C0C9D1CAE1C3B
:10067000BF1C89819A81AB81BC81880E991EAA1EFC
:10068000BB1E9AE6891698E19906A104B10434F0DC
:10069000AD81BE812A163B067CF007C0B7FE05C0BF
:1006A000ED81FE81E215F3053CF0FBE68F16F8E1E3
:1006B0009F06A104B10420F430920A02209209029C
:1006C0002BE6821628E19206A104B10424F4B7FCBB
:1006D00005C0C40105C08AE698E102C080E090E050
:1006E00026960FB6F894DEBF0FBECDBFDF91CF9137
:1006F0001F910F91FF90EF90DF90CF90BF90AF9040
:100700009F908F907F906F905F904F903F902F9031
:100710000895CF93DF9300D0CDB7DEB71A82198248
:10072000D8DEC5DC789481E080930B026DDE8C010D
:10073000BE016F5F7F4F97DD782EC92E89819A8128
:1007400001969A838983612CD12C87ECA82E81E0B5
:10075000B82E98EFE92E91E0F92E21EF822E21E0BC
:10076000922E80912402882329F025DE80E091E0FA
:1007700036D494D3809124028823D9F16620C9F11C
:10078000809188009091890020910B021F922F93F5
:100790009F938F93CF927F92809123028F9380912A
:1007A00022028F931F930F93BF92AF92FF92EF920B
:1007B00008D60FB6F894DEBF0FBECDBF80910602FB
:1007C000882389F080910A028F93809109028F9388
:1007D0009F928F92FF92EF92F4D50F900F900F900F
:1007E0000F900F900F9068EF71E08AE090E0F8D5DD
:1007F000612C80912502882309F4B3CF55245394AA
:100800005D0C95E0D9120FC0BE016F5F7F4FC8012C
:100810002ADD782EC92E89819A8101969A8389834F
:1008200066246394512CF0DD8C0110922502BC01EA
:10083000872D9C2DA2DE9093890080938800D52C73
:1008400090CF1F920F920FB60F9211248F9381E0D9
:10085000809325028F910F900FBE0F901F901895D7
:1008600081E080932402089510922402089580E08C
:1008700091E02DC380E091E010C4292F30E02230B8
:10088000310559F02330310569F021303105F9F493
:1008900082E190E02BE831E01EC08EE390E02DE491
:1008A00031E019C0882349F0813061F0823079F459
:1008B00082E190E02BE131E00EC084E090E029E499
:1008C00031E009C088E190E02FE231E004C080E02F
:1008D00090E020E030E0FA013183208308952091F8
:1008E0002E0230912F022617370748F06115710547
:1008F00039F42091E8002E772093E80001C0B90177
:1009000040E06115710579F12EB32223F1F1253014
:10091000F1F12091E80023FD3CC02091E80022FD88
:100920002EC02091E80020FFECCF2091F20030E0B3
:10093000FC01CF016115710559F02830310540F4F3
:1009400081918093F100615071092F5F3F4FF1CF8A
:1009500041E02830310509F040E02091E8002E7791
:100960002093E800CECF4111CFCF09C08EB38823AA
:1009700061F0853061F08091E80083FD0AC08091CC
:10098000E80082FFF3CF80E0089582E0089583E0DD
:10099000089581E008958F708093E900EBEEF0E018
:1009A000808181608083EDEEF0E010826093EC0046
:1009B00040838091EE00881F8827881F0895EF925A
:1009C000FF920F931F93CF93DF93E62EEC018C01E0
:1009D0000C5F1F4FF12CFE1499F19881992359F166
:1009E000F801208169817A8131973081892F8F7058
:1009F000853010F080E025C0223010F442E001C0C4
:100A000046E0E8E0F0E020E0E617F70720F42F5F8B
:100A1000EE0FFF1FF9CF2295207F422B232F229527
:100A2000220F220F207C991F9927991F622F692B73
:100A3000B2DF8823F9F2F39425960B5F1F4FCBCFDB
:100A400081E0DF91CF911F910F91FF90EF9008957A
:100A50008091280287FF0FC08091E80082FD04C0CA
:100A60008EB38111F9CF10C08091E8008B770AC056
:100A70008EB3882349F08091E80080FFF9CF809100
:100A8000E8008E778093E80008952091E40030918B
:100A9000E50095E64091EC00842F817040FF21C075
:100AA0008091E80080FD1BC08EB3882391F08530D3
:100AB00091F08091EB0085FD10C04091E4005091D1
:100AC000E5004217530731F39A01915019F784E07A
:100AD000089582E0089583E0089581E0089580E01C
:100AE00008954091E80042FFDFCF08953BD03DD00C
:100AF0008091D8008F778093D8008091D80080684B
:100B00008093D8008091D8008F7D8093D80019BC45
:100B100082E089BD09B400FEFDCF1EBA1092260204
:100B200042E060E080E037DF8091E1008E7F8093DB
:100B3000E1008091E20081608093E2008091E20018
:100B400088608093E2008091E0008E7F8093E000D7
:100B50000895E3E6F0E080818E7F808381E08093DA
:100B60002702C4CF1092E20008951092E100089588
:100B70001F920F920FB60F9211242F933F934F9312
:100B80005F936F937F938F939F93AF93BF93EF93F5
:100B9000FF938091E10080FF16C08091E20080FF0A
:100BA00012C08091E2008E7F8093E2008091E2008B
:100BB00080618093E2008091D80080628093D800A9
:100BC00019BC1EBA51DE8091E10084FF2DC08091D6
:100BD000E20084FF29C019BC82E089BD09B400FE8F
:100BE000FDCF8091D8008F7D8093D8008091E10067
:100BF0008F7E8093E1008091E2008F7E8093E200FF
:100C00008091E20081608093E20080912602882337
:100C100011F084E007C08091E30087FD02C081E00D
:100C200001C083E08EBB1CDE8091E10083FF21C008
:100C30008091E20083FF1DC08091E100877F809357
:100C4000E10082E08EBB109226028091E1008E7F4F
:100C50008093E1008091E2008E7F8093E20080919A
:100C6000E20080618093E20042E060E080E093DE99
:100C700014D1FF91EF91BF91AF919F918F917F918F
:100C80006F915F914F913F912F910F900FBE0F90F9
:100C90001F9018951F93CF93DF9300D0CDB7DEB789
:100CA000E8E2F2E088E08E0F9091F10091938E13CC
:100CB000FBCFE0DD8091E80083FFDBC0809128025C
:100CC00090912902953009F466C030F4913059F1C1
:100CD00068F0933041F1CDC0983009F49DC099304F
:100CE00009F4ACC0963009F0C4C076C0803881F0F9
:100CF000823809F0BEC080912C028F708093E90089
:100D00008091EB0085FB882780F91092E90001C0F3
:100D100080E09091E800977F9093E8008093F10045
:100D20001092F10084C0282F2D7F09F0A2C08230DC
:100D300009F09FC080912A02811127C080912C0266
:100D40008F7009F496C08093E9002091EB0020FF9A
:100D50001CC0933021F48091EB00806214C090910C
:100D6000EB0090619093EB0021E030E0A90102C01C
:100D7000440F551F8A95E2F74093EA001092EA006B
:100D80008091EB0088608093EB001092E9008091E5
:100D9000E800877F4FC081116CC010912A021F7735
:100DA0008091E3008078812B8093E3008091E800BC
:100DB000877F8093E8004CDE8091E80080FFFCCFC5
:100DC0008091E30080688093E300111102C082E00B
:100DD00001C083E08EBB4DC08058823008F049C00E
:100DE000AE014F5F5F4F60912C0280912A0290917B
:100DF0002B0243DDBC01892B09F43BC09091E80034
:100E0000977F9093E80089819A8169DD8091E8005D
:100E10008B778093E8002DC0803859F58091E800E9
:100E2000877F8093E800809126028093F100809173
:100E3000E8008E778093E8000BDE1BC0811119C09B
:100E400090912A029230A8F48091E800877F8093E5
:100E5000E80090932602FCDD80912602811106C0F5
:100E60008091E30087FD02C081E001C084E08EBB79
:100E7000FEDC8091E80083FF0AC08091E800877F54
:100E80008093E8008091EB0080628093EB000F90EC
:100E90000F90DF91CF911F9108950895CF938EB356
:100EA000882399F0C091E900CF709091EC00892FD0
:100EB000817090FD80E8C82B1092E9008091E800D5
:100EC00083FDE8DECF70C093E900CF910895CF9302
:100ED000DF93EC01FC0170968BE0DF011D928A9597
:100EE000E9F782E08C83898783E08E8761E0CE0119
:100EF000019665DD882361F061E0CE0106965FDD35
:100F0000882331F061E0CE010B96DF91CF9157CD70
:100F100080E0DF91CF9108950F931F93CF932EB36D
:100F20002430F9F4FC010489158926893789012BBD
:100F3000022B032BB1F0C62F81818F708093E900C3
:100F40008091E80085FF04C0C093F10080E00AC0F2
:100F50008091E8008E778093E80097DD8823A1F3E5
:100F600001C082E0CF911F910F910895FB01682F7E
:100F700084859585D1DF21E030E0811102C020E039
:100F800030E088279927821B930B08952EB32430D5
:100F900021F5FC014489558966897789452B462BC3
:100FA000472BD9F081818F708093E9008091F20006
:100FB000882389F09091E8008091E8008E778093F3
:100FC000E80095FD08C061DD811108C08091E8004E
:100FD0008E778093E80080E0089582E008952EB334
:100FE000243089F4FC014489558966897789452B29
:100FF000462B472B41F021812F702093E90020914F
:10100000E80020FDC3CF08952EB3243019F08FEFF0
:101010009FEF0895FC014489558966897789452B9E
:10102000462B472BA1F386818F708093E900809136
:10103000E80082FFECCF8091F200882321F020911C
:10104000F10030E002C02FEF3FEF8091F2008111FC
:1010500005C08091E8008B778093E800C90108956E
:10106000FC0184859585D0DF97FF02C08EEF9FEF4E
:101070000895FB012EE0DB011D922A95E9F723E09C
:10108000238326EB37E03187208720E338E033875E
:1010900022879587848708950895CF93DF93EC0185
:1010A0008091E80083FFA5C0888190E020912C0208
:1010B00030912D022817390709F09BC08091290231
:1010C000813261F020F4803209F43EC092C0823255
:1010D00009F46BC0833209F47CC08BC08091280274
:1010E000813A09F086C08091E800877F8093E8000C
:1010F0008091E80080FFFCCF8C899D89AE89BF89F3
:101100008093F100492F5A2F6B2F77274093F100DE
:10111000AD01662777274093F1008B2F9927AA27E7
:10112000BB278093F100888D8093F100898D809397
:10113000F1008A8D8093F1008091E8008E77809392
:10114000E800DF91CF9184CC80912802813209F0B0
:1011500050C08091E800877F8093E8008091E8008C
:1011600082FD04C08EB38111F9CF43C03091F100EC
:101170002091F1009091F1008091F1003C8B2D8B3A
:101180009E8B8F8B8091F100888F8091F100898FE9
:101190008091F1008A8F8091E8008B778093E8003E
:1011A00057DCCE01DF91CF9177CF80912802813239
:1011B00001F58091E800877F8093E80049DC809109
:1011C0002A0290912B02998B888BCE01DF91CF91CF
:1011D00063CF80912802813261F48091E800877F9B
:1011E0008093E80035DC60912A02CE01DF91CF9137
:1011F00053CFDF91CF9108950024552704C0080EE6
:10120000591F880F991F009729F076956795B8F3B5
:101210007105B9F7802D952F0895AA1BBB1B51E1CD
:1012200007C0AA1FBB1FA617B70710F0A61BB70B56
:10123000881F991F5A95A9F780959095BC01CD01FB
:10124000089568940013E894A0E0B0E0E9E2F9E0C2
:101250001DC0EFEFE7F959016A015E23550FEE0853
:10126000FE2C87019B01AC019E23990F660B762F04
:10127000CB013BD0CDB7DEB7EAE024C02F923F923E
:101280004F925F926F927F928F929F92AF92BF9296
:10129000CF92DF92EF92FF920F931F93CF93DF9342
:1012A000CDB7DEB7CA1BDB0B0FB6F894DEBF0FBE9F
:1012B000CDBF09942A88398848885F846E847D84EC
:1012C0008C849B84AA84B984C884DF80EE80FD80EE
:1012D0000C811B81AA81B981CE0FD11D0FB6F89464
:1012E000DEBF0FBECDBFED010895DF93CF939F9278
:1012F000A0E49A2E0024D001E001F0011695079594
:10130000F794E794D794C794B794A79448F41068D7
:10131000A20FB31FC41FD51FE61FF71F081E191EFB
:10132000220F331F441F551F661F771F881F991FE9
:101330009A9421F79D01AE01BF01C00111249F9035
:10134000CF91DF910895CF93DF93EC012B8120FFA4
:1013500033C026FF0AC02F7B2B838E819F8101968D
:101360009F838E838A8190E029C022FF0FC0E8818D
:10137000F9818081082E000C990B009719F42062E6
:101380002B831AC03196F983E8830EC0EA85FB856A
:10139000099597FF09C02B81019611F080E201C0E9
:1013A00080E1822B8B8308C02E813F812F5F3F4FCE
:1013B0003F832E83992702C08FEF9FEFDF91CF915C
:1013C0000895A0E0B0E0E6EEF9E068CFAE01475F37
:1013D0005F4F6F8178858D819E813AD0E2E07ACF30
:1013E0000F931F93CF93DF93FB01238121FD03C054
:1013F0008FEF9FEF28C022FF16C0468157812481BE
:1014000035814217530744F4A081B1819D012F5FBC
:101410003F4F318320838C93268137812F5F3F4F4D
:101420003783268310C0EB01092F182F0084F18524
:10143000E02D0995892BE1F68E819F8101969F838E
:101440008E83812F902FDF91CF911F910F9108955F
:10145000ACE0B0E0EDE2FAE011CF7C016B018A0173
:10146000FC0117821682838181FFB0C1CE010196F3
:101470004C01F7019381F60193FD859193FF8191D2
:101480006F01882309F49EC1853239F493FD85915B
:1014900093FF81916F01853221F4B70190E0A0DFC5
:1014A000E8CF512C312C20E02032A0F48B3269F0AF
:1014B00030F4803259F0833269F420612CC08D32CF
:1014C00039F0803339F4216026C02260246023C0C3
:1014D000286021C027FD27C030ED380F3A3078F45E
:1014E00026FF06C0852D6AE01DD2582E530E13C06C
:1014F000832D6AE017D2382E330E20620CC08E3254
:1015000021F426FD5FC1206406C08C3611F42068EA
:1015100002C0883641F4F60193FD859193FF8191D5
:101520006F018111C1CF982F9F7D9554933028F47E
:101530000C5F1F4FFFE3F9830DC0833631F0833713
:1015400071F0833509F057C021C0F801808189838B
:101550000E5F1F4F44244394512C540114C0380192
:10156000F2E06F0E711CF801A080B18026FF03C06D
:10157000652D70E002C06FEF7FEFC5012C8736D17B
:101580002C0183012C852F77222E16C03801F2E022
:101590006F0E711CF801A080B18026FF03C0652D7D
:1015A00070E002C06FEF7FEFC5012C8714D12C01D2
:1015B0002C852068222E830123FC19C0832D90E006
:1015C00048165906A0F4B70180E290E009DF3A948A
:1015D000F5CFF50127FC859127FE81915F01B701C9
:1015E00090E0FEDE31103A94F1E04F1A51084114B8
:1015F000510479F7DEC0843611F0893631F5F801EF
:1016000027FF07C060817181828193810C5F1F4F2A
:1016100008C060817181072E000C880B990B0E5F4A
:101620001F4F2F76722E97FF09C090958095709569
:1016300061957F4F8F4F9F4F2068722E2AE030E0D8
:10164000A401DFD0A82EA81843C0853729F42F7E27
:10165000B22E2AE030E025C0F22FF97FBF2E8F3660
:10166000C1F018F4883579F0ADC0803719F08837AB
:1016700021F0A8C02F2F2061B22EB4FE0DC08B2DFB
:101680008460B82E09C024FF0AC09F2F9660B92E2F
:1016900006C028E030E005C020E130E002C020E1D3
:1016A00032E0F801B7FE07C06081718182819381C9
:1016B0000C5F1F4F06C06081718180E090E00E5F7B
:1016C0001F4FA4019ED0A82EA818FB2DFF777F2EB8
:1016D00076FE0BC0372D3E7FA51450F474FE0AC071
:1016E00072FC08C0372D3E7E05C0BA2C372D03C0D2
:1016F000BA2C01C0B52C34FF0DC0FE01EA0DF11D5E
:101700008081803311F4397E09C032FF06C0B39462
:10171000B39404C0832F867809F0B39433FD12C0CC
:1017200030FF06C05A2CB31418F4530C5B18B32CBA
:10173000B31460F4B70180E290E03C8751DEB394CB
:101740003C85F6CFB31410F43B1801C0312C34FFA4
:1017500011C0B70180E390E03C8742DE3C8532FF58
:1017600016C031FD03C088E790E002C088E590E034
:10177000B7010CC0832F867851F031FF02C08BE295
:1017800001C080E237FD8DE2B70190E029DEA514AB
:1017900030F4B70180E390E023DE5A94F8CFAA94A6
:1017A000F401EA0DF11D8081B70190E019DEA1106E
:1017B000F6CF332009F45DCEB70180E290E010DE71
:1017C0003A94F7CFF7018681978102C08FEF9FEFA0
:1017D0002C96E2E16FCDFC01059061507040011044
:1017E000D8F7809590958E0F9F1F0895FC0161504A
:1017F000704001900110D8F7809590958E0F9F1F33
:101800000895FA01AA27283061F1203191F1E89476
:101810006F936E7F6E5F7F4F8F4F9F4FAF4FB1E0E3
:1018200040D0B4E03ED0670F781F891F9A1FA11DDA
:10183000680F791F8A1F911DA11D6A0F711D811DDF
:10184000911DA11D22D009F468943F91062E000C31
:101850003019000C000C3019305D3193CEF6CF01F9
:101860000895462F4770405D4193B3E00FD0C9F70C
:10187000F6CF462F4F70405D4A3318F0495D31FD79
:101880004052419302D0A9F7EACFB4E0A6959795CC
:10189000879577956795BA95C9F7009761057105A2
:1018A00008959B01AC010A2E0694579547953795EC
:1018B0002795BA95C9F7620F731F841F951FA01D46
:1018C0000895DC01CB01FC01F999FECF06C0F2BD01
:1018D000E1BDF89A319600B40D9241505040B8F7EE
:1018E0000895DC01A40FB51F4150504040F0CB01DA
:1018F000840F951F2E9105D041505040D8F7089580
:10190000262FF999FECF92BD81BDF89A019700B4B8
:10191000021639F01FBA20BD0FB6F894FA9AF99A58
:101920000FBE0895002480FD060E660F11F0869507
:0A193000D1F7802D0895F894FFCF41
:10193A000083100000010410000001820800000169
:10194A00000000000000000000000012034C0055D7
:10195A0000460041002000430044004300000018F4
:10196A00034400650061006E002000430061006DC1
:10197A000065007200610000000403090409023EC8
:10198A000002010080320904000001020201000580
:10199A00240010010424020205240600010705821E
:1019AA00030800FF09040100020A000000070504F9
:1019BA00021000050705830210000512011001023A
:1019CA00000008EB034A20000101020001212575ED
:1019DA002C25752C25752C25752C25752C25752CF3
:1019EA0025752C25752C25752C25750A00466175DB
:1019FA006C743A25750A0074656D703A25752C72F7
:101A0A006F6F6D3A25752C7461726765743A257526
:101A1A002C50574D3A25752C73746174653A2564B8
:081A2A00002C493A256400007C
:00000001FF
