:1000000039C0000053C0000051C000004FC00000C4
:100010004DC000004BC0000049C0000047C00000B8
:1000200045C0000043C0000041C00000D8C200002D
:100030003DC000003BC0000039C0000037C00000D8
:1000400035C0000033C0000031C000002FC00000E8
:100050002DC000002BC0000029C0000027C00000F8
:1000600025C0000023C0000021C000001FC0000008
:100070001DC0000011241FBECFEFD2E0DEBFCDBFF8
:1000800011E0A0E0B1E0E4E1F2E102C005900D92E0
:10009000AE3BB107D9F711E0AEEBB1E001C01D9264
:1000A000A93DB107E1F7C3D00C940809A9CF81E0BD
:1000B0008093BE0108951092BE01089581E291E0FF
:1000C0002CC581E291E002C50F931F93DF93CF937C
:1000D00000D000D0CDB7DEB715B800000000FE019B
:1000E00031969E012B5F3F4F1EBC0DB407FEFDCF26
:1000F0008EB58193E217F307B9F7998197FF03C093
:1001000000E010E00CC08A8186958695092F10E0EA
:1001100046E0000F111F4A95E1F7080F111D8B8172
:1001200087FF05C01092C0011092BF0113C02C813F
:1001300022952F7090E034E0880F991F3A95E1F7EF
:10014000820F911D96958795969587959093C001FE
:100150008093BF018A8180FF21C000D000D000D0F1
:10016000EDB7FEB7319681EC91E0ADB7BEB7129610
:100170009C938E93119780E091E0938382838C818E
:1001800090E0877090709583848385D58DB79EB7F6
:1001900006960FB6F8949EBF0FBE8DBF81E085B95D
:1001A000C8010F900F900F900F90CF91DF911F918A
:1001B0000F91089584B7877F84BF88E10FB6F894C4
:1001C00080936000109260000FBE80E090E020E815
:1001D0000FB6F89420936100809361000FBE1092D7
:1001E00085001092840082E8809380008CED8093DB
:1001F00081008AE698E1909387008093860081E7EA
:1002000092E0909389008093880080E487B918B8C1
:100210001AB880E58CBD81E08DBD83E084B9289A51
:100220002998CED181E291E061EC71E0B9C3AF923F
:10023000BF92CF92DF92EF92FF921F93CF93DF9303
:10024000B9DF789441DFEC0110E0F1ECEF2EF1E042
:10025000FF2EEAE0AE2EE1E0BE2E78ECC72ED12CC8
:100260008091BE01882321F081E291E0E4D357D34D
:100270008091BE018823C1F11123B1F12091880042
:10028000309189008DB79EB70A970FB6F8949EBF3C
:100290000FBE8DBFEDB7FEB73196ADB7BEB71296A4
:1002A000FC92EE921197B382A282D695C795D6950D
:1002B000C795D583C4838091BF019091C001969565
:1002C0008795969587959783868331872087E3D492
:1002D0008DB79EB70A960FB6F8949EBF0FBE8DBF1E
:1002E0008AE090E0B701E8D484EC99E0F601319718
:1002F000F1F70197D9F7E8DEEC0111E0B1CFFA018F
:10030000923039F0933051F09130E9F48CE391E080
:1003100017C08EE491E02EE330E019C0882329F461
:100320008CE891E024E030E012C0813029F480E9CB
:1003300091E028E130E00BC0823029F48AEA91E0B4
:1003400022E130E004C080E090E020E030E09183E2
:100350008083C90108959C014091D7015091D80133
:100360004617570718F4F90190E03CC06115710574
:1003700011F0AB01F8CF8091E8008E778093E80010
:1003800040E050E0F0CF8EB3882309F440C08530C0
:1003900009F43FC08091E80083FD3DC08091E800F2
:1003A00082FD2FC08091E80080FF1CC08091F20088
:1003B000282F30E007C081918093F10041505040D8
:1003C0002F5F3F4F4115510519F02830310598F343
:1003D00090E02830310509F491E08091E8008E77B3
:1003E0008093E8004115510571F6992361F609C023
:1003F0008EB3882361F0853061F08091E80083FD41
:100400000AC08091E80082FFF3CF80E0089582E087
:10041000089583E0089581E008958F708093E90046
:100420008091EB0081608093EB001092ED0060936F
:10043000EC004093ED008091EE00881F8827881F14
:1004400008950F931F93CF93DF93062FEC0110E0D5
:100450002AC09881992329F16B81E981FA812C8145
:10046000892F8F70853018F5223010F452E001C0CA
:1004700056E040E028E030E003C04F5F220F331F1A
:100480002E173F07D0F36295660F660F607C991FA9
:100490009927991F692B4295407F452BBEDF882302
:1004A00031F01F5F25961017A0F281E001C080E0B7
:1004B000DF91CF911F910F9108958091D1018823F1
:1004C0008CF403C08EB38823B1F08091E80082FFE2
:1004D000F9CF8091E8008B778093E80008958EB380
:1004E000882349F08091E80080FFF9CF8091E800EF
:1004F0008E778093E80008954091E4005091E500E4
:1005000024E68091EC0080FF23C08091E80080FD0C
:100510001DC08EB3882311F482E00895853011F454
:1005200083E008958091EB0085FF02C081E008958B
:100530008091E4009091E5008417950711F3222340
:1005400011F484E008952150AC01DBCF80E00895E0
:100550008091E80082FFDDCFF9CF3BD03DD0809184
:10056000D8008F778093D8008091D80080688093DE
:10057000D8008091D8008F7D8093D80019BC82E08C
:1005800089BD09B400FEFDCF1EBA1092CF0180E0F4
:1005900060E042E042DF8091E1008E7F8093E100E5
:1005A0008091E20081608093E2008091E2008860A7
:1005B0008093E2008091E0008E7F8093E0000895B8
:1005C000E3E6F0E080818E7F808381E08093D0013C
:1005D000C4CF1092E20008951092E10008951F9296
:1005E0000F920FB60F9211242F933F934F935F9367
:1005F0006F937F938F939F93AF93BF93EF93FF93EB
:100600008091E10080FF16C08091E20080FF12C05F
:100610008091E2008E7F8093E2008091E200806111
:100620008093E2008091D80080628093D80019BC4A
:100630001EBA41DD8091E10084FF2DC08091E2006F
:1006400084FF29C019BC82E089BD09B400FEFDCF3A
:100650008091D8008F7D8093D8008091E1008F7EBB
:100660008093E1008091E2008F7E8093E200809190
:10067000E20081608093E2008091CF01882311F035
:1006800084E007C08091E30087FD02C081E001C0E3
:1006900083E08EBB0CDD8091E10083FF21C080915F
:1006A000E20083FF1DC08091E100877F8093E1001D
:1006B00082E08EBB1092CF018091E1008E7F80930B
:1006C000E1008091E2008E7F8093E2008091E20061
:1006D00080618093E20080E060E042E09EDE1ED117
:1006E000FF91EF91BF91AF919F918F917F916F910A
:1006F0005F914F913F912F910F900FBE0F901F90E0
:1007000018951F93DF93CF9300D0CDB7DEB7E1EDFF
:10071000F1E08091F100819381E0E93DF807C9F7AC
:10072000CDDC8091E80083FFE5C08091D1019091FC
:10073000D201953009F46FC0963040F4913091F1B8
:10074000913070F0933009F0D5C02CC0983009F486
:10075000A4C0993009F4B3C0963009F0CBC07DC075
:10076000803811F490E014C0823809F0C3C0809141
:10077000D5018F708093E9008091EB0090E025E037
:10078000969587952A95E1F7982F91701092E90038
:100790008091E800877F8093E8009093F1001092A9
:1007A000F10086C0882319F0823009F0A3C08F7150
:1007B000823009F09FC08091D301882331F52091C8
:1007C000D5012F7009F496C02093E9008091EB00C9
:1007D00080FF1BC0933021F48091EB00806213C036
:1007E0008091EB0080618093EB0081E090E002C09B
:1007F000880F991F2A95E2F78093EA001092EA0089
:100800008091EB0088608093EB001092E90080916A
:10081000E800877F50C0882309F06CC01091D30195
:100820001F778091E3008078812B8093E300809193
:10083000E800877F8093E80040DE8091E80080FF39
:10084000FCCF8091E30080688093E300112311F4D2
:1008500082E001C083E08EBB4DC08058823008F03A
:1008600049C08091D3019091D4016091D501AE012E
:100870004F5F5F4F44DDBC01009709F43BC080919E
:10088000E800877F8093E80089819A8164DD809108
:10089000E8008B778093E8002DC0803859F580916F
:1008A000E800877F8093E8008091CF018093F1007A
:1008B0008091E8008E778093E800FFDD1BC08823DD
:1008C000C9F49091D3019230A8F48091E800877F19
:1008D0008093E8009093CF01F0DD8091CF018823D1
:1008E00031F48091E30087FD02C081E001C084E023
:1008F0008EBBE7DB8091E80083FF0AC08091E800AF
:10090000877F8093E8008091EB0080628093EB000A
:100910000F900F90CF91DF911F91089508951F932D
:100920008EB3882371F01091E9008091EC00109251
:10093000E9008091E80083FF01C0E3DE1F7010939F
:10094000E9001F910895FC018EB3843029F5848954
:100950009589A689B7890097A105B105E9F0868137
:100960008F708093E9008091E80082FF15C080912C
:10097000F200882319F42FEF3FEF04C08091F100BB
:10098000282F30E08091F200882341F48091E80024
:100990008B778093E80002C02FEF3FEFC9010895E5
:1009A000FB012EE0DB011D922A95E9F723E023836A
:1009B00027E535E03187208723EE34E0338722872F
:1009C000958784870895FC0184859585BCDF9C010B
:1009D00097FF02C02EEF3FEFC90108950895FC0173
:1009E0008EB3843019F584899589A689B7890097D3
:1009F000A105B105D9F081818F708093E9008091C4
:100A0000F2008823A9F09091E8008091E8008E77A9
:100A10008093E80095FD0CC06FDD982F882349F482
:100A20008091E8008E778093E80003C092E001C0D7
:100A300090E0892F0895FC018EB3843091F484896D
:100A40009589A689B7890097A105B10551F08181E3
:100A50008F708093E9008091E80080FF02C0CF0191
:100A6000BECF08951F93FC01162F8EB38430E1F49E
:100A700084899589A689B7890097A105B105A1F058
:100A800081818F708093E9008091E80085FD08C026
:100A90008091E8008E778093E8002EDD882329F48A
:100AA0001093F10080E001C082E01F910895282F8B
:100AB000FB0184859585622FD5DF882319F420E01A
:100AC00030E002C02FEF3FEFC9010895CF93DF93CD
:100AD000EC014096FC018BE0DF011D928A95E9F75D
:100AE00082E08C83898783E08E87CE01019661E066
:100AF000A8DC882371F0CE01069661E0A2DC882391
:100B000041F0CE010B9661E09CDC882319F081E076
:100B100001C080E0DF91CF910895CF93DF93EC0186
:100B20008091E80083FFA2C0888190E02091D501E8
:100B30003091D6012817390709F098C08091D20169
:100B4000813269F0823220F4803209F08FC03CC0DB
:100B5000823209F46AC0833209F088C079C080917A
:100B6000D101813A09F082C08091E800877F8093AB
:100B7000E8008091E80080FFFCCF8C899D89AE89D8
:100B8000BF898093F100292F3A2F4B2F55272093AF
:100B9000F1009D01442755272093F1008B2F9927C1
:100BA000AA27BB278093F100888D8093F100898D5F
:100BB0008093F1008A8D8093F1008091E8008E7718
:100BC0008093E8007ADC52C08091D101813209F033
:100BD0004DC08091E800877F8093E80004C08EB309
:100BE000882309F443C08091E80082FFF8CF809108
:100BF000F1009091F1002091F1003091F1008C8B87
:100C00009D8B2E8B3F8B8091F100888F8091F1001E
:100C1000898F8091F1008A8F8091E8008B77809393
:100C2000E8004BDCCE01DADE21C08091D1018132B7
:100C3000E9F48091E800877F8093E8003EDC8091B2
:100C4000D3019091D401998B888BCE01C7DE0EC061
:100C50008091D101813251F48091E800877F8093A7
:100C6000E8002BDCCE016091D301B8DEDF91CF919B
:100C700008955527002480FF02C0060E571F660FF7
:100C8000771F6115710521F096958795009799F763
:100C9000952F802D0895A0E0B0E0E0E5F6E091C248
:100CA0009E01275F3F4F8D819E816F817885A901CD
:100CB0002FD02096E2E0A1C20F931F93CF93DF9332
:100CC0008C01EB018B8181FF1BC082FF0DC02E8147
:100CD0003F818C819D812817390764F4E881F9816F
:100CE0000193F983E88306C0E885F985802F09958B
:100CF000892B31F48E819F8101969F838E8302C060
:100D00000FEF1FEFC801DF91CF911F910F91089551
:100D1000ABE0B0E0EDE8F6E044C24C012B015A0133
:100D2000FC0117821682838181FD03C06FEF7FEF84
:100D3000BEC11E010894211C311C9FE3692EF401E1
:100D40003381F20133FD859133FF81912F01882397
:100D500009F4AAC1853239F433FD859133FF8191BD
:100D60002F01853221F490E0B401A6DFE8CF982F5F
:100D7000FF24EE247724FFE1FF15D0F09B3269F0C9
:100D80009C3228F4903259F0933291F40EC09D3287
:100D900049F0903369F441E02AC052E0F52A84E03A
:100DA000F82A2EC098E0F92A2BC0E0E1FE2A28C0DC
:100DB000F7FC2FC0292F20532A30A0F4F6FE08C0DC
:100DC000872D90E06AE070E054DF782E720E18C034
:100DD0008E2D90E06AE070E04CDFE82EE20EF0E24B
:100DE000FF2A0EC09E3229F4F6FC5EC140E4F42ACC
:100DF00007C09C3619F450E8F52A02C0983649F429
:100E0000F20133FD959133FF91912F01992309F060
:100E1000B2CF892F8554833018F08052833030F45C
:100E200044E050E0A40EB51E69820FC0933631F045
:100E3000933779F0933509F052C01FC0F5018081D6
:100E4000898342E050E0A40EB51E610101E010E08C
:100E500011C0F501C080D180F6FC03C06FEF7FEFB9
:100E600002C0672D70E042E050E0A40EB51EC6013E
:100E70002DD18C015FE7F52213C0F501C080D18030
:100E8000F6FC03C06FEF7FEF02C0672D70E042E019
:100E900050E0A40EB51EC6010ED18C0150E8F52A13
:100EA000F3FE06C018C080E290E0B40105DFEA94CA
:100EB0008E2D90E008171907B0F30DC0F601F7FC6E
:100EC0008591F7FE81916F0190E0B401F5DEE110AC
:100ED000EA94015010400115110581F7E2C09436E3
:100EE00011F0993661F5F7FE08C0F50120813181D6
:100EF0004281538184E090E00AC0F50180819181B4
:100F00009C01442737FD4095542F82E090E0A80EC5
:100F1000B91E9FE6F92257FF09C0509540953095BC
:100F200021953F4F4F4F5F4FE0E8FE2ACA01B901BC
:100F3000A1012AE030E0D5D0D82ED2183FC0953795
:100F400029F41F2D1F7E2AE030E01DC01F2D197FC0
:100F50009F3661F0903720F4983509F0A5C00FC096
:100F6000903739F0983709F09FC004C028E030E08E
:100F70000AC0106114FD146020E130E004C014FDCB
:100F8000166020E132E017FF08C0F5016081718131
:100F90008281938144E050E008C0F5018081918115
:100FA000BC0180E090E042E050E0A40EB51EA1013B
:100FB00098D0D82ED2188FE7F82EF122F6FE0BC06B
:100FC0005EEFF522D71438F4F4FE07C0F2FC05C03A
:100FD0008FEEF82202C01D2D01C0172DF4FE0DC0AA
:100FE000FE01ED0DF11D8081803319F499EEF92297
:100FF00008C01F5FF2FE05C003C08F2D867809F080
:101000001F5F0F2DF3FC13C0F0FE0EC01E1510F075
:101010007D2C0AC07D2C7E0C711A1E2D05C080E22D
:1010200090E0B40149DE1F5F1E15C8F304C01E1511
:1010300010F4E11A01C0EE2404FF0EC080E390E03A
:10104000B4013ADE02FF1BC001FD03C088E790E057
:101050000EC088E590E00BC0802F867881F001FFFC
:1010600002C08BE201C080E2F7FC8DE290E0B401A7
:1010700023DE05C080E390E0B4011EDE7A94D7142D
:10108000C8F3DA94F101ED0DF11D808190E0B40117
:1010900013DEDD20B1F705C080E290E0B4010CDE84
:1010A000EA94EE20C9F74BCEF40166817781CB013B
:1010B0002B96E2E192C0FC01059061507040011056
:1010C000D8F7809590958E0F9F1F0895FC01615071
:1010D000704001900110D8F7809590958E0F9F1F5A
:1010E0000895FA01AA27283061F1203191F1E8949E
:1010F0006F936E7F6E5F7F4F8F4F9F4FAF4FB1E00B
:1011000040D0B4E03ED0670F781F891F9A1FA11D01
:10111000680F791F8A1F911DA11D6A0F711D811D06
:10112000911DA11D22D009F468943F91062E000C58
:101130003019000C000C3019305D3193CEF6CF0120
:101140000895462F4770405D4193B3E00FD0C9F733
:10115000F6CF462F4F70405D4A3318F0495D31FDA0
:101160004052419302D0A9F7EACFB4E0A6959795F3
:10117000879577956795BA95C9F7009761057105C9
:1011800008959B01AC010A2E069457954795379513
:101190002795BA95C9F7620F731F841F951FA01D6D
:1011A00008952F923F924F925F926F927F928F920B
:1011B0009F92AF92BF92CF92DF92EF92FF920F93E6
:1011C0001F93CF93DF93CDB7DEB7CA1BDB0B0FB6F0
:1011D000F894DEBF0FBECDBF09942A8839884888AD
:1011E0005F846E847D848C849B84AA84B984C88443
:1011F000DF80EE80FD800C811B81AA81B981CE0F3A
:10120000D11D0FB6F894DEBF0FBECDBFED0108951E
:04121000F894FFCF80
:101214004661756C743A25750A0074656D703A25DB
:10122400752C726F6F6D3A25752C50574D3A257594
:101234000000831000000104100000018208000077
:101244000100000000000000000000001201100175
:1012540002000008EB034A20000101020001090218
:101264003E00020100803209040000010202010074
:1012740005240010010424020205240600010705C8
:1012840082030800FF09040100020A0000000705A8
:101294000402100005070583021000050403090475
:1012A40018034400650061006E00200043006100E3
:1012B4006D00650072006100000012034C005500CF
:0E12C4004600410020004300440043000000AB
:00000001FF
