:1000000039C0000053C0000051C000004FC00000C4
:100010004DC000004BC0000049C0000047C00000B8
:1000200045C0000043C0000041C0000039C30000CB
:100030003DC000003BC0000039C0000037C00000D8
:1000400035C0000033C0000031C000002FC00000E8
:100050002DC000002BC0000029C0000027C00000F8
:1000600025C0000023C0000021C000001FC0000008
:100070001DC0000011241FBECFEFD4E0DEBFCDBFF6
:1000800011E0A0E0B1E0E4E8F3E102C005900D92D8
:10009000AC3EB107D9F722E0ACEEB1E001C01D9251
:1000A000A930B207E1F72BD10C94C009A9CFEF9288
:1000B000FF920F931F93CF93DF938CEE91E031D695
:1000C0007C010196D1F38CEE91E02BD68F3F2FEF80
:1000D0009207C9F3FF248C0111279E2D8827802BBE
:1000E000912B9093FB018093FA019F938F938DE95D
:1000F00091E09F938F93CCEED1E0DF93CF934FD6D7
:10010000BE018AE090E05AD6FF92EF9287EB91E031
:100110009F938F93DF93CF9342D6BE018AE090E006
:100120004DD61F930F9381EC91E09F938F93DF93B4
:10013000CF9335D6BE018AE090E040D68091FA0197
:100140009091FB0190938900809388008DB79EB7B2
:1001500042960FB6F8949EBF0FBE8DBF42E050E0AE
:1001600060E070E08AEF91E0DF91CF911F910F91F5
:10017000FF90EF900C945F098CEE91E0D2D5813224
:1001800051F48CEE91E0CDD58F3F2FEF9207C9F35C
:10019000873509F48CCF089542E050E060E070E0CC
:1001A0008AEF91E00E944F098091FA019091FB0142
:1001B000909389008093880008950F931F93CF93A5
:1001C000DF9300D000D0CDB7DEB715B80000000037
:1001D000FE01319684E08E0F1EBC0DB407FEFDCFEC
:1001E0009EB591938E13F8CF09819A8107FD0CC0BB
:1001F00010E066E0000F111F6A95E1F7892F8695E0
:100200008695080F111D02C000E010E02B8127FF2A
:1002100005C01092FD011092FC0113C08C818295E3
:100220008F7030E044E0220F331F4A95E1F7280F2A
:10023000311D36952795369527953093FD012093EE
:10024000FC0190FF13C08C8187701F928F938BEC01
:1002500091E09F938F938CEE91E09F938F939FD526
:100260000F900F900F900F900F900F9081E085B935
:10027000C8010F900F900F900F90DF91CF911F91B9
:100280000F91089584B7877F84BF0FB6F894A8951F
:1002900080916000886180936000109260000FBEC2
:1002A00090E080E80FB6F89480936100909361002D
:1002B0000FBE109285001092840082E88093800027
:1002C0008CED809381008AE698E19093870080937B
:1002D0008600109289001092880080E487B918B8CF
:1002E0001AB880E58CBD81E08DBD83E084B9289A81
:1002F0002998C7D16CEE71E080E091E04FC4C2DF75
:100300004BDF78945ADFEC01D12C05ED11E04CEE77
:10031000E42E41E0F42E8091FE01882329F02CDFA9
:1003200080E091E0F1D351D38091FE01882351F117
:10033000DD2041F180918800909189009F938F93F7
:100340008091FC019091FD019695879596958795F2
:100350009F938F93D695C795D695C795DF93CF93E7
:100360001F930F93FF92EF921AD56CEE71E08AE023
:1003700090E024D58DB79EB70A960FB6F8949EBF2D
:100380000FBE8DBF9FE72AE186E09150204080405C
:10039000E1F700C0000011DFEC01DD24D394BBCFF6
:1003A00081E08093FE0108951092FE01089580E09F
:1003B00091E026C380E091E005C4292F30E022308F
:1003C000310559F02330310569F021303105F9F458
:1003D00082E190E02BE831E01EC08EE390E02DE456
:1003E00031E019C0882349F0813061F0823079F41E
:1003F00082E190E02BE131E00EC084E090E029E45E
:1004000031E009C088E190E02FE231E004C080E0F3
:1004100090E020E030E0FA013183208308952091BC
:100420000702309108022617370748F06115710559
:1004300039F42091E8002E772093E80001C0B9013B
:1004400020E061157105C9F13EB3332309F442C0C0
:10045000353009F441C03091E80033FD3FC03091A0
:10046000E80032FF06C08091E80082FF29C080E0EA
:1004700008953091E80030FFE4CF2091F20030E0A1
:10048000FC01281B390BCF01820F931F61157105E9
:1004900049F08830910530F481918093F1006150EA
:1004A0007109F1CF21E0089709F020E08091E80080
:1004B0008E778093E800CF01C4CF2111C5CFD3CF71
:1004C0008EB3882339F0853039F08091E80083FFBE
:1004D000CACF04C082E0089583E0089581E00895C2
:1004E0008F708093E900EBEEF0E080818160808383
:1004F000EDEEF0E010826093EC0040838091EE001E
:10050000881F8827881F08950F931F93CF93DF9329
:10051000062FEC0110E0101769F19881992339F149
:100520002C81E981FA816B81892F8F70853010F0E1
:1005300080E021C0223010F056E001C052E028E0F7
:1005400030E040E02E173F0720F44F5F220F331FAB
:10055000F9CF4295407F452B991F9927991F6295A6
:10056000660F660F607C692BBBDF882309F31F5F72
:100570002596D1CF81E0DF91CF911F910F91089502
:100580008091010287FD05C08091E80080FF0DC0C9
:1005900010C08091E80082FD04C08EB38111F9CFB4
:1005A00008958091E8008B7707C08EB38111ECCF5E
:1005B00008958091E8008E778093E80008958091F7
:1005C000E4009091E50045E62091EC0020FF20C07A
:1005D0002091E80020FD20C02EB3222389F0253091
:1005E00089F02091EB0025FD0FC02091E4003091AF
:1005F000E5002817390741F3415041F0C901E4CF24
:1006000082E0089583E0089581E0089584E00895EC
:100610002091E80022FFE0CF80E008953BD03DD05C
:100620008091D8008F778093D8008091D80080681F
:100630008093D8008091D8008F7D8093D80019BC1A
:1006400082E089BD09B400FEFDCF1EBA1092FF0101
:1006500042E060E080E044DF8091E1008E7F8093A3
:10066000E1008091E20081608093E2008091E200ED
:1006700088608093E2008091E0008E7F8093E000AC
:100680000895E3E6F0E080818E7F808381E08093AF
:100690000002C4CF1092E20008951092E100089584
:1006A0001F920F920FB60F9211242F933F934F93E7
:1006B0005F936F937F938F939F93AF93BF93EF93CA
:1006C000FF938091E10080FF16C08091E20080FFDF
:1006D00012C08091E2008E7F8093E2008091E20060
:1006E00080618093E2008091D80080628093D8007E
:1006F00019BC1EBA59DE8091E10084FF2DC08091A3
:10070000E20084FF29C019BC82E089BD09B400FE63
:10071000FDCF8091D8008F7D8093D8008091E1003B
:100720008F7E8093E1008091E2008F7E8093E200D3
:100730008091E20081608093E2008091FF01882334
:1007400011F084E007C08091E30087FF02C083E0DE
:1007500001C081E08EBB24DE8091E10083FF21C0D7
:100760008091E20083FF1DC08091E100877F80932C
:10077000E10082E08EBB1092FF018091E1008E7F4C
:100780008093E1008091E2008E7F8093E20080916F
:10079000E20080618093E20042E060E080E0A0DE61
:1007A00013D1FF91EF91BF91AF919F918F917F9165
:1007B0006F915F914F913F912F910F900FBE0F90CE
:1007C0001F9018951F93CF93DF9300D0CDB7DEB75E
:1007D000E1E0F2E08091F100819382E0E930F807F6
:1007E000C9F7E8DD8091E80083FFDAC0909101024B
:1007F00080910202853009F465C030F4813059F1EE
:1008000068F0833041F1CCC0883009F49CC0893055
:1008100009F4ABC0863009F0C3C075C0903881F0D0
:10082000923809F0BDC0809105028F708093E90075
:100830009091EB0095FB992790F91092E90001C087
:1008400090E08091E800877F8093E8009093F1002A
:100850001092F10083C0292F2D7F09F0A1C09230A2
:1008600009F09EC090910302911126C020910502CB
:100870002F7009F495C02093E9009091EB0090FF50
:100880001BC0833021F48091EB00806213C0809103
:10089000EB0080618093EB0081E090E0022E01C0CC
:1008A000880F0A94EAF78093EA001092EA00809198
:1008B000EB0088608093EB001092E9008091E800E3
:1008C000877F4FC091116CC0109103021F778091F8
:1008D000E3008078812B8093E3008091E800877F9C
:1008E0008093E8004DDE8091E80080FFFCCF80918E
:1008F000E30080688093E300112311F083E001C0DE
:1009000082E08EBB4DC09058923008F049C0AE01D5
:100910004F5F5F4F60910502809103029091040246
:100920004CDD009709F43CC02091E800277F20931C
:10093000E800BC0189819A8172DD8091E8008B77A3
:100940008093E8002DC0903859F58091E800877FAA
:100950008093E8008091FF018093F1008091E8008E
:100960008E778093E8000CDE1BC0911119C0909126
:1009700003029230A8F48091E800877F8093E8001A
:100980009093FF01FDDD8091FF01811104C08091F2
:10099000E30087FF02C084E001C081E08EBB07DD79
:1009A0008091E80083FF0AC08091E800877F8093F0
:1009B000E8008091EB0080628093EB000F900F9035
:1009C000DF91CF911F9108950895CF938EB388231F
:1009D000A9F08091E9008F709091EC0090FF02C027
:1009E00090E801C090E0C92FC82B1092E9008091D7
:1009F000E80083FDE7DECF70C093E900CF91089552
:100A0000CF93DF93EC01FC0170968BE0DF011D9228
:100A10008A95E9F782E08C83898783E08E8761E09D
:100A2000CE01019671DD882361F061E0CE0106966A
:100A30006BDD882331F061E0CE010B96DF91CF9121
:100A400063CD80E0DF91CF910895CF93C62F2EB371
:100A50002430F1F4FC014489558966897789452B56
:100A6000462B472BA9F081818F708093E9008091FC
:100A7000E80085FF04C0C093F10080E00AC08091C7
:100A8000E8008E778093E8009ADD8823A1F301C007
:100A900082E0CF910895FB01682F84859585D5DF8D
:100AA00021E030E0811102C020E030E08827992762
:100AB000821B930B08952EB3243021F5FC01448949
:100AC000558966897789452B462B472BD9F081813B
:100AD0008F708093E9008091F200882389F09091D3
:100AE000E8008091E8008E778093E80095FD08C0CB
:100AF00066DD811108C08091E8008E778093E80060
:100B000080E0089582E008952EB3243089F4FC013A
:100B10004489558966897789452B462B472B41F0B7
:100B200021812F702093E9002091E80020FDC3CFA0
:100B300008952EB3243019F08FEF9FEF0895FC0134
:100B40004489558966897789452B462B472BA1F324
:100B500086818F708093E9008091E80082FFECCF5E
:100B60008091F200882321F02091F10030E002C052
:100B70002FEF3FEF8091F200811105C08091E800D6
:100B80008B778093E800C9010895FC0184859585E1
:100B9000D0DF97FF02C08EEF9FEF0895FB012EE09C
:100BA000DB011D922A95E9F723E023832BE435E04E
:100BB0003187208725EC35E0338722879587848726
:100BC00008950895CF93DF93EC018091E80083FFAF
:100BD000A5C0888190E02091050230910602281777
:100BE000390709F09BC080910202813261F020F444
:100BF000803209F43EC092C0823209F46BC0833265
:100C000009F47CC08BC080910102813A09F086C052
:100C10008091E800877F8093E8008091E80080FF62
:100C2000FCCF4C895D896E897F894093F100BB2799
:100C3000A72F962F852F8093F100CB01AA27BB27E2
:100C40008093F100472F5527662777274093F100BF
:100C5000888D8093F100898D8093F1008A8D809337
:100C6000F1008091E8008E778093E800DF91CF91CA
:100C700087CC80910102813209F050C08091E80058
:100C8000877F8093E8008091E80082FD04C08EB3E6
:100C90008111F9CF43C03091F1002091F100909182
:100CA000F1008091F1003C8B2D8B9E8B8F8B80917E
:100CB000F100888F8091F100898F8091F1008A8FF7
:100CC0008091E8008B778093E8005ADCCE01DF91B9
:100CD000CF9177CF80910102813201F58091E800B8
:100CE000877F8093E8004CDC80910302909104029E
:100CF000998B888BCE01DF91CF9163CF80910102D8
:100D0000813261F48091E800877F8093E80038DCCD
:100D100060910302CE01DF91CF9153CFDF91CF914C
:100D20000895CF93DF93EC012B8120FF33C026FF82
:100D30000AC02F7B2B838E819F8101969F838E8398
:100D40008A8190E029C022FF0FC0E881F98180816B
:100D5000082E000C990B009719F420622B831AC0FF
:100D60003196F983E8830EC0EA85FB85099597FFE4
:100D700009C02B81019611F080E201C080E1822B35
:100D80008B8308C02E813F812F5F3F4F3F832E838F
:100D9000992702C08FEF9FEFDF91CF910895A0E0D8
:100DA000B0E0E4EDF6E0C5C2AE01475F5F4F6F8192
:100DB00078858D819E813AD0E2E0D7C20F931F9350
:100DC000CF93DF93FB01238121FD03C08FEF9FEFC2
:100DD00028C022FF16C046815781248135814217E1
:100DE000530744F4A081B1819D012F5F3F4F3183B0
:100DF00020838C93268137812F5F3F4F3783268353
:100E000010C0EB01092F182F0084F185E02D099502
:100E1000892BE1F68E819F8101969F838E83812F9E
:100E2000902FDF91CF911F910F910895ACE0B0E02A
:100E3000EBE1F7E06EC27C016B018A01FC011782D5
:100E40001682838181FFB0C1CE0101964C01F7016A
:100E50009381F60193FD859193FF81916F01882322
:100E600009F49EC1853239F493FD859193FF8191F8
:100E70006F01853221F4B70190E0A0DFE8CF512C5B
:100E8000312C20E02032A0F48B3269F030F4803233
:100E900059F0833269F420612CC08D3239F08033EF
:100EA00039F4216026C02260246023C0286021C05C
:100EB00027FD27C030ED380F3A3078F426FF06C002
:100EC000852D6AE01DD2582E530E13C0832D6AE083
:100ED00017D2382E330E20620CC08E3221F426FD3C
:100EE0005FC1206406C08C3611F4206802C08836C9
:100EF00041F4F60193FD859193FF81916F0181117A
:100F0000C1CF982F9F7D9554933028F40C5F1F4FCD
:100F1000FFE3F9830DC0833631F0833771F08335F9
:100F200009F057C021C0F801808189830E5F1F4FEF
:100F300044244394512C540114C03801F2E06F0E44
:100F4000711CF801A080B18026FF03C0652D70E000
:100F500002C06FEF7FEFC5012C8736D12C018301D2
:100F60002C852F77222E16C03801F2E06F0E711CEF
:100F7000F801A080B18026FF03C0652D70E002C09B
:100F80006FEF7FEFC5012C8714D12C012C852068D1
:100F9000222E830123FC19C0832D90E048165906A8
:100FA000A0F4B70180E290E009DF3A94F5CFF501B3
:100FB00027FC859127FE81915F01B70190E0FEDE5D
:100FC00031103A94F1E04F1A51084114510479F765
:100FD000DEC0843611F0893631F5F80127FF07C0ED
:100FE00060817181828193810C5F1F4F08C0608195
:100FF0007181072E000C880B990B0E5F1F4F2F7607
:10100000722E97FF09C090958095709561957F4FDE
:101010008F4F9F4F2068722E2AE030E0A401DFD06E
:10102000A82EA81843C0853729F42F7EB22E2AE0B7
:1010300030E025C0F22FF97FBF2E8F36C1F018F4B3
:10104000883579F0ADC0803719F0883721F0A8C015
:101050002F2F2061B22EB4FE0DC08B2D8460B82ED0
:1010600009C024FF0AC09F2F9660B92E06C028E051
:1010700030E005C020E130E002C020E132E0F801BC
:10108000B7FE07C060817181828193810C5F1F4F21
:1010900006C06081718180E090E00E5F1F4FA40167
:1010A0009ED0A82EA818FB2DFF777F2E76FE0BC0B2
:1010B000372D3E7FA51450F474FE0AC072FC08C0A0
:1010C000372D3E7E05C0BA2C372D03C0BA2C01C087
:1010D000B52C34FF0DC0FE01EA0DF11D8081803377
:1010E00011F4397E09C032FF06C0B394B39404C032
:1010F000832F867809F0B39433FD12C030FF06C009
:101100005A2CB31418F4530C5B18B32CB31460F4BA
:10111000B70180E290E03C8751DEB3943C85F6CF86
:10112000B31410F43B1801C0312C34FF11C0B701C7
:1011300080E390E03C8742DE3C8532FF16C031FD03
:1011400003C088E790E002C088E590E0B7010CC0DA
:10115000832F867851F031FF02C08BE201C080E21C
:1011600037FD8DE2B70190E029DEA51430F4B70118
:1011700080E390E023DE5A94F8CFAA94F401EA0DBC
:10118000F11D8081B70190E019DEA110F6CF332068
:1011900009F45DCEB70180E290E010DE3A94F7CF1B
:1011A000F7018681978102C08FEF9FEF2C96E2E1D5
:1011B000CCC0FC010590615070400110D8F78095BB
:1011C00090958E0F9F1F0895FC0161507040019013
:1011D0000110D8F7809590958E0F9F1F0895FA0102
:1011E000AA27283061F1203191F1E8946F936E7F46
:1011F0006E5F7F4F8F4F9F4FAF4FB1E040D0B4E055
:101200003ED0670F781F891F9A1FA11D680F791F95
:101210008A1F911DA11D6A0F711D811D911DA11DA8
:1012200022D009F468943F91062E000C3019000C6E
:10123000000C3019305D3193CEF6CF010895462F62
:101240004770405D4193B3E00FD0C9F7F6CF462F0A
:101250004F70405D4A3318F0495D31FD4052419373
:1012600002D0A9F7EACFB4E0A69597958795779530
:101270006795BA95C9F700976105710508959B01B7
:10128000AC010A2E06945795479537952795BA9540
:10129000C9F7620F731F841F951FA01D0895DC01FD
:1012A000CB01FC01F999FECF06C0F2BDE1BDF89A71
:1012B000319600B40D9241505040B8F70895DC01CA
:1012C000A40FB51F4150504040F0CB01840F951F33
:1012D0002E9105D041505040D8F70895262FF99906
:1012E000FECF92BD81BDF89A019700B4021639F085
:1012F0001FBA20BD0FB6F894FA9AF99A0FBE089556
:10130000002480FD060E660F11F08695D1F7802D22
:1013100008952F923F924F925F926F927F928F9299
:101320009F92AF92BF92CF92DF92EF92FF920F9374
:101330001F93CF93DF93CDB7DEB7CA1BDB0B0FB67E
:10134000F894DEBF0FBECDBF09942A88398848883B
:101350005F846E847D848C849B84AA84B984C884D1
:10136000DF80EE80FD800C811B81AA81B981CE0FC8
:10137000D11D0FB6F894DEBF0FBECDBFED010895AD
:04138000F894FFCF0F
:101384000083100000010410000001820800000125
:10139400000000000000000000000012034C005593
:1013A40000460041002000430044004300000018B0
:1013B400034400650061006E002000430061006D7D
:1013C4000065007200610000000403090409023E84
:1013D400000201008032090400000102020100053C
:1013E40024001001042402020524060001070582DA
:1013F400030800FF09040100020A000000070504B5
:1014040002100005070583021000051201100102F5
:10141400000008EB034A20000101020001556E653B
:1014240073656E61207672696A65646E6F73742089
:101434006A653A2025750053657420303A20256387
:101444000053657420313A202563004661756C743D
:101454003A25750A0074656D703A25752C726F6FA4
:0C1464006D3A25752C50574D3A25750047
:00000001FF
