:1000000039C0000053C0000051C000004FC00000C4
:100010004DC000004BC0000049C0000047C00000B8
:1000200045C0000043C0000041C00000BBC200004A
:100030003DC000003BC0000039C0000037C00000D8
:1000400035C0000033C0000031C000002FC00000E8
:100050002DC000002BC0000029C0000027C00000F8
:1000600025C0000023C0000021C000001FC0000008
:100070001DC0000011241FBECFEFD4E0DEBFCDBFF6
:1000800011E0A0E0B1E0E0EBF1E102C005900D92DB
:10009000AE3BB107D9F721E0AEEBB1E001C01D9254
:1000A000A93DB207E1F7A7D00C94D608A9CF0F93CA
:1000B0001F93CF93DF9300D000D0CDB7DEB715B834
:1000C00000000000FE01319684E08E0F1EBC0DB4CE
:1000D00007FEFDCF9EB591938E13F8CF09819A81CB
:1000E00007FD0CC010E066E0000F111F6A95E1F7F4
:1000F000892F86958695080F111D02C000E010E03B
:100100002B8127FF05C01092CD011092CC0113C0A6
:100110008C8182958F7030E044E0220F331F4A9526
:10012000E1F7280F311D36952795369527953093A1
:10013000CD012093CC0190FF13C08C8187701F925A
:100140008F938DE991E09F938F938EEB91E09F9336
:100150008F936CD50F900F900F900F900F900F9082
:1001600081E085B9C8010F900F900F900F90DF913B
:10017000CF911F910F91089584B7877F84BF0FB6E9
:10018000F894A89580916000886180936000109237
:1001900060000FBE90E080E80FB6F8948093610095
:1001A000909361000FBE109285001092840082E847
:1001B000809380008CED809381008AE698E1909393
:1001C00087008093860081E792E090938900809376
:1001D000880080E487B918B81AB880E58CBD81E042
:1001E0008DBD83E084B9289A2998CDD16EEB71E05A
:1001F00080E091E058C4C0DF789459DFEC01D12C45
:1002000007EA11E04EEBE42E41E0F42E8091CE019E
:10021000882321F080E091E0FCD35AD38091CE0175
:10022000882351F1DD2041F180918800909189006F
:100230009F938F938091CC019091CD019695879556
:10024000969587959F938F93D695C795D695C79585
:10025000DF93CF931F930F93FF92EF92E7D46EEB50
:1002600071E08AE090E0F1D48DB79EB70A960FB6A0
:10027000F8949EBF0FBE8DBF9FE72AE186E09150A4
:1002800020408040E1F700C0000011DFEC01DD24D8
:10029000D394BCCF81E08093CE0108951092CE011B
:1002A000089580E091E02DC380E091E010C4292FF3
:1002B00030E02230310559F02330310569F021302A
:1002C0003105F9F482E190E02BE831E01EC08EE3C5
:1002D00090E02DE431E019C0882349F0813061F0CD
:1002E000823079F482E190E02BE131E00EC084E0CD
:1002F00090E029E431E009C088E190E02FE231E0AC
:1003000004C080E090E020E030E0FA0131832083F7
:1003100008952091D7013091D8012617370748F06A
:100320006115710539F42091E8002E772093E800DB
:1003300001C0B90140E06115710579F12EB32223A6
:10034000F1F12530F1F12091E80023FD3CC020912E
:10035000E80022FD2EC02091E80020FFECCF209184
:10036000F20030E0FC01CF016115710559F0283031
:10037000310540F481918093F100615071092F5F44
:100380003F4FF1CF41E02830310509F040E02091A6
:10039000E8002E772093E800CECF4111CFCF09C0DF
:1003A0008EB3882361F0853061F08091E80083FD91
:1003B0000AC08091E80082FFF3CF80E0089582E0D8
:1003C000089583E0089581E008958F708093E90097
:1003D000EBEEF0E0808181608083EDEEF0E0108252
:1003E0006093EC0040838091EE00881F8827881F6F
:1003F0000895EF92FF920F931F93CF93DF93E62E12
:10040000EC018C010C5F1F4FF12CFE1499F19881C7
:10041000992359F1F801208169817A8131973081DE
:10042000892F8F70853010F080E025C0223010F4C5
:1004300042E001C046E0E8E0F0E020E0E617F70720
:1004400020F42F5FEE0FFF1FF9CF2295207F422B64
:10045000232F2295220F220F207C991F9927991F65
:10046000622F692BB2DF8823F9F2F39425960B5F94
:100470001F4FCBCF81E0DF91CF911F910F91FF9064
:10048000EF9008958091D10187FF0FC08091E8001F
:1004900082FD04C08EB38111F9CF10C08091E800B5
:1004A0008B770AC08EB3882349F08091E80080FFE3
:1004B000F9CF8091E8008E778093E800089520912D
:1004C000E4003091E50095E64091EC00842F8170C6
:1004D00040FF21C08091E80080FD1BC08EB38823BF
:1004E00091F0853091F08091EB0085FD10C0409136
:1004F000E4005091E5004217530731F39A019150FF
:1005000019F784E0089582E0089583E0089581E07A
:10051000089580E008954091E80042FFDFCF0895FC
:100520003BD03DD08091D8008F778093D8008091C8
:10053000D80080688093D8008091D8008F7D809308
:10054000D80019BC82E089BD09B400FEFDCF1EBAF7
:100550001092CF0142E060E080E037DF8091E1005F
:100560008E7F8093E1008091E20081608093E200C1
:100570008091E20088608093E2008091E0008E7FAD
:100580008093E0000895E3E6F0E080818E7F808331
:1005900081E08093D001C4CF1092E20008951092C0
:1005A000E10008951F920F920FB60F9211242F931E
:1005B0003F934F935F936F937F938F939F93AF93EB
:1005C000BF93EF93FF938091E10080FF16C080916D
:1005D000E20080FF12C08091E2008E7F8093E200F3
:1005E0008091E20080618093E2008091D800806277
:1005F0008093D80019BC1EBA51DE8091E10084FFBF
:100600002DC08091E20084FF29C019BC82E089BD21
:1006100009B400FEFDCF8091D8008F7D8093D80073
:100620008091E1008F7E8093E1008091E2008F7ED7
:100630008093E2008091E20081608093E2008091EB
:10064000CF01882311F084E007C08091E30087FD8B
:1006500002C081E001C083E08EBB1CDE8091E1001E
:1006600083FF21C08091E20083FF1DC08091E100E3
:10067000877F8093E10082E08EBB1092CF01809152
:10068000E1008E7F8093E1008091E2008E7F809375
:10069000E2008091E20080618093E20042E060E04D
:1006A00080E093DE14D1FF91EF91BF91AF919F91C4
:1006B0008F917F916F915F914F913F912F910F900B
:1006C0000FBE0F901F9018951F93CF93DF9300D00C
:1006D000CDB7DEB7E1EDF1E088E08E0F9091F1004B
:1006E00091938E13FBCFE0DD8091E80083FFDBC0A8
:1006F0008091D1019091D201953009F466C030F417
:10070000913059F168F0933041F1CDC0983009F43F
:100710009DC0993009F4ACC0963009F0C4C076C0D1
:10072000803881F0823809F0BEC08091D5018F7089
:100730008093E9008091EB0085FB882780F9109277
:10074000E90001C080E09091E800977F9093E80075
:100750008093F1001092F10084C0282F2D7F09F0C2
:10076000A2C0823009F09FC08091D301811127C0BF
:100770008091D5018F7009F496C08093E900209193
:10078000EB0020FF1CC0933021F48091EB008062CD
:1007900014C09091EB0090619093EB0021E030E069
:1007A000A90102C0440F551F8A95E2F74093EA0061
:1007B0001092EA008091EB0088608093EB00109229
:1007C000E9008091E800877F4FC081116CC01091D3
:1007D000D3011F778091E3008078812B8093E30021
:1007E0008091E800877F8093E8004CDE8091E800EC
:1007F00080FFFCCF8091E30080688093E3001111BB
:1008000002C082E001C083E08EBB4DC080588230C0
:1008100008F049C0AE014F5F5F4F6091D5018091F4
:10082000D3019091D40143DDBC01892B09F43BC075
:100830009091E800977F9093E80089819A8169DD23
:100840008091E8008B778093E8002DC0803859F5BF
:100850008091E800877F8093E8008091CF018093AA
:10086000F1008091E8008E778093E8000BDE1BC0DA
:10087000811119C09091D3019230A8F48091E800C1
:10088000877F8093E8009093CF01FCDD8091CF01BA
:10089000811106C08091E30087FD02C081E001C0A4
:1008A00084E08EBBFEDC8091E80083FF0AC080916B
:1008B000E800877F8093E8008091EB00806280935E
:1008C000EB000F900F90DF91CF911F910895089545
:1008D000CF938EB3882399F0C091E900CF709091A7
:1008E000EC00892F817090FD80E8C82B1092E90000
:1008F0008091E80083FDE8DECF70C093E900CF91DE
:100900000895CF93DF93EC01FC0170968BE0DF013B
:100910001D928A95E9F782E08C83898783E08E8730
:1009200061E0CE01019665DD882361F061E0CE01D2
:1009300006965FDD882331F061E0CE010B96DF91F2
:10094000CF9157CD80E0DF91CF9108950F931F9302
:10095000CF932EB32430F9F4FC010489158926893C
:100960003789012B022B032BB1F0C62F81818F70A9
:100970008093E9008091E80085FF04C0C093F100F6
:1009800080E00AC08091E8008E778093E80097DDD0
:100990008823A1F301C082E0CF911F910F910895A8
:1009A000FB01682F84859585D1DF21E030E081113E
:1009B00002C020E030E088279927821B930B08951E
:1009C0002EB3243021F5FC01448955896689778945
:1009D000452B462B472BD9F081818F708093E900FE
:1009E0008091F200882389F09091E8008091E800DE
:1009F0008E778093E80095FD08C061DD811108C005
:100A00008091E8008E778093E80080E0089582E08E
:100A100008952EB3243089F4FC01448955896689F0
:100A20007789452B462B472B41F021812F7020934E
:100A3000E9002091E80020FDC3CF08952EB32430B3
:100A400019F08FEF9FEF0895FC014489558966895D
:100A50007789452B462B472BA1F386818F70809396
:100A6000E9008091E80082FFECCF8091F2008823BA
:100A700021F02091F10030E002C02FEF3FEF809194
:100A8000F200811105C08091E8008B778093E80027
:100A9000C9010895FC0184859585D0DF97FF02C0C8
:100AA0008EEF9FEF0895FB012EE0DB011D922A954A
:100AB000E9F723E0238320ED34E0318720872AE41F
:100AC00035E0338722879587848708950895CF93EB
:100AD000DF93EC018091E80083FFA5C0888190E05E
:100AE0002091D5013091D6012817390709F09BC014
:100AF0008091D201813261F020F4803209F43EC04D
:100B000092C0823209F46BC0833209F47CC08BC07E
:100B10008091D101813A09F086C08091E800877FF9
:100B20008093E8008091E80080FFFCCF8C899D894C
:100B3000AE89BF898093F100492F5A2F6B2F7727F9
:100B40004093F100AD01662777274093F1008B2F8A
:100B50009927AA27BB278093F100888D8093F10005
:100B6000898D8093F1008A8D8093F1008091E80057
:100B70008E778093E800DF91CF9184CC8091D10172
:100B8000813209F050C08091E800877F8093E800AF
:100B90008091E80082FD04C08EB38111F9CF43C07B
:100BA0003091F1002091F1009091F1008091F100DD
:100BB0003C8B2D8B9E8B8F8B8091F100888F809149
:100BC000F100898F8091F1008A8F8091E8008B7706
:100BD0008093E80057DCCE01DF91CF9177CF8091F1
:100BE000D101813201F58091E800877F8093E80090
:100BF00049DC8091D3019091D401998B888BCE01EF
:100C0000DF91CF9163CF8091D101813261F48091E6
:100C1000E800877F8093E80035DC6091D301CE0146
:100C2000DF91CF9153CFDF91CF910895A0E0B0E055
:100C3000EBE1F6E094C2AE01475F5F4F6F817885CC
:100C40008D819E813AD0E2E0A6C20F931F93CF938D
:100C5000DF93FB01238121FD03C08FEF9FEF28C0AD
:100C600022FF16C0468157812481358142175307E0
:100C700044F4A081B1819D012F5F3F4F31832083D8
:100C80008C93268137812F5F3F4F3783268310C097
:100C9000EB01092F182F0084F185E02D0995892B90
:100CA000E1F68E819F8101969F838E83812F902F05
:100CB000DF91CF911F910F910895ACE0B0E0E2E693
:100CC000F6E03DC27C016B018A01FC0117821682AD
:100CD000838181FFB0C1CE0101964C01F701938160
:100CE000F60193FD859193FF81916F01882309F4AB
:100CF0009EC1853239F493FD859193FF81916F01F7
:100D0000853221F4B70190E0A0DFE8CF512C312CDF
:100D100020E02032A0F48B3269F030F4803259F0B8
:100D2000833269F420612CC08D3239F0803339F47C
:100D3000216026C02260246023C0286021C027FDD6
:100D400027C030ED380F3A3078F426FF06C0852DE5
:100D50006AE0ECD1582E530E13C0832D6AE0E6D121
:100D6000382E330E20620CC08E3221F426FD5FC176
:100D7000206406C08C3611F4206802C0883641F425
:100D8000F60193FD859193FF81916F018111C1CF90
:100D9000982F9F7D9554933028F40C5F1F4FFFE3ED
:100DA000F9830DC0833631F0833771F0833509F054
:100DB00057C021C0F801808189830E5F1F4F4424F2
:100DC0004394512C540114C03801F2E06F0E711C91
:100DD000F801A080B18026FF03C0652D70E002C03D
:100DE0006FEF7FEFC5012C8736D12C0183012C8555
:100DF0002F77222E16C03801F2E06F0E711CF80119
:100E0000A080B18026FF03C0652D70E002C06FEFA7
:100E10007FEFC5012C8714D12C012C852068222E50
:100E2000830123FC19C0832D90E048165906A0F4D5
:100E3000B70180E290E009DF3A94F5CFF50127FC95
:100E4000859127FE81915F01B70190E0FEDE3110B0
:100E50003A94F1E04F1A51084114510479F7DEC079
:100E6000843611F0893631F5F80127FF07C060811B
:100E70007181828193810C5F1F4F08C060817181F5
:100E8000072E000C880B990B0E5F1F4F2F76722ECA
:100E900097FF09C090958095709561957F4F8F4F12
:100EA0009F4F2068722E2AE030E0A401DFD0A82EE8
:100EB000A81843C0853729F42F7EB22E2AE030E0EF
:100EC00025C0F22FF97FBF2E8F36C1F018F4883578
:100ED00079F0ADC0803719F0883721F0A8C02F2FE6
:100EE0002061B22EB4FE0DC08B2D8460B82E09C0D7
:100EF00024FF0AC09F2F9660B92E06C028E030E07C
:100F000005C020E130E002C020E132E0F801B7FE88
:100F100007C060817181828193810C5F1F4F06C081
:100F20006081718180E090E00E5F1F4FA4019ED030
:100F3000A82EA818FB2DFF777F2E76FE0BC0372D2D
:100F40003E7FA51450F474FE0AC072FC08C0372D11
:100F50003E7E05C0BA2C372D03C0BA2C01C0B52C7B
:100F600034FF0DC0FE01EA0DF11D8081803311F4C4
:100F7000397E09C032FF06C0B394B39404C0832FF6
:100F8000867809F0B39433FD12C030FF06C05A2CA6
:100F9000B31418F4530C5B18B32CB31460F4B701FA
:100FA00080E290E03C8751DEB3943C85F6CFB314E9
:100FB00010F43B1801C0312C34FF11C0B70180E39D
:100FC00090E03C8742DE3C8532FF16C031FD03C015
:100FD00088E790E002C088E590E0B7010CC0832F5D
:100FE000867851F031FF02C08BE201C080E237FD0C
:100FF0008DE2B70190E029DEA51430F4B70180E35B
:1010000090E023DE5A94F8CFAA94F401EA0DF11D82
:101010008081B70190E019DEA110F6CF332009F4EA
:101020005DCEB70180E290E010DE3A94F7CFF70191
:101030008681978102C08FEF9FEF2C96E2E19BC0E3
:10104000FC010590615070400110D8F78095909593
:101050008E0F9F1F0895FC01615070400190011098
:10106000D8F7809590958E0F9F1F0895FA01AA27B3
:10107000283061F1203191F1E8946F936E7F6E5FBB
:101080007F4F8F4F9F4FAF4FB1E040D0B4E03ED085
:10109000670F781F891F9A1FA11D680F791F8A1F6C
:1010A000911DA11D6A0F711D811D911DA11D22D0D1
:1010B00009F468943F91062E000C3019000C000CC6
:1010C0003019305D3193CEF6CF010895462F477029
:1010D000405D4193B3E00FD0C9F7F6CF462F4F7074
:1010E000405D4A3318F0495D31FD4052419302D0D2
:1010F000A9F7EACFB4E0A695979587957795679578
:10110000BA95C9F700976105710508959B01AC0177
:101110000A2E06945795479537952795BA95C9F79E
:10112000620F731F841F951FA01D0895002480FD6A
:10113000060E660F11F08695D1F7802D08952F9237
:101140003F924F925F926F927F928F929F92AF9257
:10115000BF92CF92DF92EF92FF920F931F93CF93A4
:10116000DF93CDB7DEB7CA1BDB0B0FB6F894DEBF3B
:101170000FBECDBF09942A88398848885F846E8461
:101180007D848C849B84AA84B984C884DF80EE80AB
:10119000FD800C811B81AA81B981CE0FD11D0FB6B4
:1011A000F894DEBF0FBECDBFED010895F894FFCFD8
:1011B00000831000000104100000018208000001FB
:1011C000000000000000000000000012034C005569
:1011D0000046004100200043004400430000001886
:1011E000034400650061006E002000430061006D53
:1011F0000065007200610000000403090409023E5A
:101200000002010080320904000001020201000511
:1012100024001001042402020524060001070582AF
:10122000030800FF09040100020A0000000705048A
:1012300002100005070583021000051201100102CB
:10124000000008EB034A200001010200014661751D
:101250006C743A25750A0074656D703A25752C72A8
:0E1260006F6F6D3A25752C50574D3A2575006D
:00000001FF
